{"contracts/TodoList.sol":{"TodoList":{"abi":[{"inputs":[{"internalType":"string","name":"text_","type":"string"}],"name":"addTodoItem","outputs":[],"stateMutability":"nonpayable","type":"function"},{"inputs":[{"internalType":"uint256","name":"id_","type":"uint256"}],"name":"deleteTodo","outputs":[],"stateMutability":"nonpayable","type":"function"},{"inputs":[],"name":"getAllTodos","outputs":[{"components":[{"internalType":"uint256","name":"id","type":"uint256"},{"internalType":"string","name":"text","type":"string"},{"internalType":"address","name":"creator","type":"address"},{"internalType":"bool","name":"isCompleted","type":"bool"}],"internalType":"struct TodoList.TodoItem[]","name":"","type":"tuple[]"}],"stateMutability":"view","type":"function"},{"inputs":[{"internalType":"uint256","name":"id_","type":"uint256"}],"name":"getTodo","outputs":[{"components":[{"internalType":"uint256","name":"id","type":"uint256"},{"internalType":"string","name":"text","type":"string"},{"internalType":"address","name":"creator","type":"address"},{"internalType":"bool","name":"isCompleted","type":"bool"}],"internalType":"struct TodoList.TodoItem","name":"","type":"tuple"}],"stateMutability":"view","type":"function"},{"inputs":[{"internalType":"uint256","name":"id_","type":"uint256"}],"name":"toggleTask","outputs":[],"stateMutability":"nonpayable","type":"function"},{"inputs":[{"internalType":"uint256","name":"id_","type":"uint256"},{"internalType":"string","name":"text_","type":"string"}],"name":"updateTodo","outputs":[],"stateMutability":"nonpayable","type":"function"}],"evm":{"bytecode":{"linkReferences":{},"object":"608060405234801561001057600080fd5b5061136d806100206000396000f3fe608060405234801561001057600080fd5b50600436106100625760003560e01c8063613137a4146100675780636e3c67381461008357806379f2d5e31461009f578063ce2bd5d5146100bb578063d534ee88146100d9578063dd68afb6146100f5575b600080fd5b610081600480360381019061007c9190610929565b610125565b005b61009d60048036038101906100989190610929565b610257565b005b6100b960048036038101906100b49190610a9c565b6103dd565b005b6100c36104d3565b6040516100d09190610cf4565b60405180910390f35b6100f360048036038101906100ee9190610d16565b61063f565b005b61010f600480360381019061010a9190610929565b610756565b60405161011c9190610dd5565b60405180910390f35b80600080549050811061016d576040517f08c379a000000000000000000000000000000000000000000000000000000000815260040161016490610e54565b60405180910390fd5b600080838154811061018257610181610e74565b5b906000526020600020906003020190508060020160009054906101000a900473ffffffffffffffffffffffffffffffffffffffff1673ffffffffffffffffffffffffffffffffffffffff163373ffffffffffffffffffffffffffffffffffffffff1614610224576040517f08c379a000000000000000000000000000000000000000000000000000000000815260040161021b90610f15565b60405180910390fd5b8060020160149054906101000a900460ff16158160020160146101000a81548160ff021916908315150217905550505050565b80600080549050811061029f576040517f08c379a000000000000000000000000000000000000000000000000000000000815260040161029690610e54565b60405180910390fd5b60008083815481106102b4576102b3610e74565b5b906000526020600020906003020190508060020160009054906101000a900473ffffffffffffffffffffffffffffffffffffffff1673ffffffffffffffffffffffffffffffffffffffff163373ffffffffffffffffffffffffffffffffffffffff1614610356576040517f08c379a000000000000000000000000000000000000000000000000000000000815260040161034d90610fa7565b60405180910390fd5b60008160020160006101000a81548173ffffffffffffffffffffffffffffffffffffffff021916908373ffffffffffffffffffffffffffffffffffffffff16021790555060008160020160146101000a81548160ff021916908315150217905550604051806020016040528060008152508160010190816103d791906111d3565b50505050565b6000604051806080016040528060008054905081526020018381526020013373ffffffffffffffffffffffffffffffffffffffff16815260200160001515815250908060018154018082558091505060019003906000526020600020906003020160009091909190915060008201518160000155602082015181600101908161046691906111d3565b5060408201518160020160006101000a81548173ffffffffffffffffffffffffffffffffffffffff021916908373ffffffffffffffffffffffffffffffffffffffff16021790555060608201518160020160146101000a81548160ff021916908315150217905550505050565b60606000805480602002602001604051908101604052809291908181526020016000905b8282101561063657838290600052602060002090600302016040518060800160405290816000820154815260200160018201805461053490610ff6565b80601f016020809104026020016040519081016040528092919081815260200182805461056090610ff6565b80156105ad5780601f10610582576101008083540402835291602001916105ad565b820191906000526020600020905b81548152906001019060200180831161059057829003601f168201915b505050505081526020016002820160009054906101000a900473ffffffffffffffffffffffffffffffffffffffff1673ffffffffffffffffffffffffffffffffffffffff1673ffffffffffffffffffffffffffffffffffffffff1681526020016002820160149054906101000a900460ff161515151581525050815260200190600101906104f7565b50505050905090565b816000805490508110610687576040517f08c379a000000000000000000000000000000000000000000000000000000000815260040161067e90610e54565b60405180910390fd5b600080848154811061069c5761069b610e74565b5b906000526020600020906003020190508060020160009054906101000a900473ffffffffffffffffffffffffffffffffffffffff1673ffffffffffffffffffffffffffffffffffffffff163373ffffffffffffffffffffffffffffffffffffffff161461073e576040517f08c379a000000000000000000000000000000000000000000000000000000000815260040161073590611317565b60405180910390fd5b8281600101908161074f91906111d3565b5050505050565b61075e61089f565b6000828154811061077257610771610e74565b5b9060005260206000209060030201604051806080016040529081600082015481526020016001820180546107a590610ff6565b80601f01602080910402602001604051908101604052809291908181526020018280546107d190610ff6565b801561081e5780601f106107f35761010080835404028352916020019161081e565b820191906000526020600020905b81548152906001019060200180831161080157829003601f168201915b505050505081526020016002820160009054906101000a900473ffffffffffffffffffffffffffffffffffffffff1673ffffffffffffffffffffffffffffffffffffffff1673ffffffffffffffffffffffffffffffffffffffff1681526020016002820160149054906101000a900460ff1615151515815250509050919050565b60405180608001604052806000815260200160608152602001600073ffffffffffffffffffffffffffffffffffffffff1681526020016000151581525090565b6000604051905090565b600080fd5b600080fd5b6000819050919050565b610906816108f3565b811461091157600080fd5b50565b600081359050610923816108fd565b92915050565b60006020828403121561093f5761093e6108e9565b5b600061094d84828501610914565b91505092915050565b600080fd5b600080fd5b6000601f19601f8301169050919050565b7f4e487b7100000000000000000000000000000000000000000000000000000000600052604160045260246000fd5b6109a982610960565b810181811067ffffffffffffffff821117156109c8576109c7610971565b5b80604052505050565b60006109db6108df565b90506109e782826109a0565b919050565b600067ffffffffffffffff821115610a0757610a06610971565b5b610a1082610960565b9050602081019050919050565b82818337600083830152505050565b6000610a3f610a3a846109ec565b6109d1565b905082815260208101848484011115610a5b57610a5a61095b565b5b610a66848285610a1d565b509392505050565b600082601f830112610a8357610a82610956565b5b8135610a93848260208601610a2c565b91505092915050565b600060208284031215610ab257610ab16108e9565b5b600082013567ffffffffffffffff811115610ad057610acf6108ee565b5b610adc84828501610a6e565b91505092915050565b600081519050919050565b600082825260208201905092915050565b6000819050602082019050919050565b610b1a816108f3565b82525050565b600081519050919050565b600082825260208201905092915050565b60005b83811015610b5a578082015181840152602081019050610b3f565b60008484015250505050565b6000610b7182610b20565b610b7b8185610b2b565b9350610b8b818560208601610b3c565b610b9481610960565b840191505092915050565b600073ffffffffffffffffffffffffffffffffffffffff82169050919050565b6000610bca82610b9f565b9050919050565b610bda81610bbf565b82525050565b60008115159050919050565b610bf581610be0565b82525050565b6000608083016000830151610c136000860182610b11565b5060208301518482036020860152610c2b8282610b66565b9150506040830151610c406040860182610bd1565b506060830151610c536060860182610bec565b508091505092915050565b6000610c6a8383610bfb565b905092915050565b6000602082019050919050565b6000610c8a82610ae5565b610c948185610af0565b935083602082028501610ca685610b01565b8060005b85811015610ce25784840389528151610cc38582610c5e565b9450610cce83610c72565b925060208a01995050600181019050610caa565b50829750879550505050505092915050565b60006020820190508181036000830152610d0e8184610c7f565b905092915050565b60008060408385031215610d2d57610d2c6108e9565b5b6000610d3b85828601610914565b925050602083013567ffffffffffffffff811115610d5c57610d5b6108ee565b5b610d6885828601610a6e565b9150509250929050565b6000608083016000830151610d8a6000860182610b11565b5060208301518482036020860152610da28282610b66565b9150506040830151610db76040860182610bd1565b506060830151610dca6060860182610bec565b508091505092915050565b60006020820190508181036000830152610def8184610d72565b905092915050565b600082825260208201905092915050565b7f4f7574206f6620626f756e647300000000000000000000000000000000000000600082015250565b6000610e3e600d83610df7565b9150610e4982610e08565b602082019050919050565b60006020820190508181036000830152610e6d81610e31565b9050919050565b7f4e487b7100000000000000000000000000000000000000000000000000000000600052603260045260246000fd5b7f4f6e6c79207468652063726561746f72206f662074686520746f646f2069746560008201527f6d2063616e20746f67676c792069742e00000000000000000000000000000000602082015250565b6000610eff603083610df7565b9150610f0a82610ea3565b604082019050919050565b60006020820190508181036000830152610f2e81610ef2565b9050919050565b7f4f6e6c79207468652063726561746f72206f662074686520746f646f2069746560008201527f6d2063616e2064656c6574652069742e00000000000000000000000000000000602082015250565b6000610f91603083610df7565b9150610f9c82610f35565b604082019050919050565b60006020820190508181036000830152610fc081610f84565b9050919050565b7f4e487b7100000000000000000000000000000000000000000000000000000000600052602260045260246000fd5b6000600282049050600182168061100e57607f821691505b60208210810361102157611020610fc7565b5b50919050565b60008190508160005260206000209050919050565b60006020601f8301049050919050565b600082821b905092915050565b6000600883026110897fffffffffffffffffffffffffffffffffffffffffffffffffffffffffffffffff8261104c565b611093868361104c565b95508019841693508086168417925050509392505050565b6000819050919050565b60006110d06110cb6110c6846108f3565b6110ab565b6108f3565b9050919050565b6000819050919050565b6110ea836110b5565b6110fe6110f6826110d7565b848454611059565b825550505050565b600090565b611113611106565b61111e8184846110e1565b505050565b5b818110156111425761113760008261110b565b600181019050611124565b5050565b601f8211156111875761115881611027565b6111618461103c565b81016020851015611170578190505b61118461117c8561103c565b830182611123565b50505b505050565b600082821c905092915050565b60006111aa6000198460080261118c565b1980831691505092915050565b60006111c38383611199565b9150826002028217905092915050565b6111dc82610b20565b67ffffffffffffffff8111156111f5576111f4610971565b5b6111ff8254610ff6565b61120a828285611146565b600060209050601f83116001811461123d576000841561122b578287015190505b61123585826111b7565b86555061129d565b601f19841661124b86611027565b60005b828110156112735784890151825560018201915060208501945060208101905061124e565b86831015611290578489015161128c601f891682611199565b8355505b6001600288020188555050505b505050505050565b7f4f6e6c79207468652063726561746f72206f662074686520746f646f2069746560008201527f6d2063616e206d6f646966792069742e00000000000000000000000000000000602082015250565b6000611301603083610df7565b915061130c826112a5565b604082019050919050565b60006020820190508181036000830152611330816112f4565b905091905056fea264697066735822122009998ca550eed684b4d76717346f327ab40c3b31a0056709154238f346b0b73464736f6c63430008110033","opcodes":"PUSH1 0x80 PUSH1 0x40 MSTORE CALLVALUE DUP1 ISZERO PUSH2 0x10 JUMPI PUSH1 0x0 DUP1 REVERT JUMPDEST POP PUSH2 0x136D DUP1 PUSH2 0x20 PUSH1 0x0 CODECOPY PUSH1 0x0 RETURN INVALID PUSH1 0x80 PUSH1 0x40 MSTORE CALLVALUE DUP1 ISZERO PUSH2 0x10 JUMPI PUSH1 0x0 DUP1 REVERT JUMPDEST POP PUSH1 0x4 CALLDATASIZE LT PUSH2 0x62 JUMPI PUSH1 0x0 CALLDATALOAD PUSH1 0xE0 SHR DUP1 PUSH4 0x613137A4 EQ PUSH2 0x67 JUMPI DUP1 PUSH4 0x6E3C6738 EQ PUSH2 0x83 JUMPI DUP1 PUSH4 0x79F2D5E3 EQ PUSH2 0x9F JUMPI DUP1 PUSH4 0xCE2BD5D5 EQ PUSH2 0xBB JUMPI DUP1 PUSH4 0xD534EE88 EQ PUSH2 0xD9 JUMPI DUP1 PUSH4 0xDD68AFB6 EQ PUSH2 0xF5 JUMPI JUMPDEST PUSH1 0x0 DUP1 REVERT JUMPDEST PUSH2 0x81 PUSH1 0x4 DUP1 CALLDATASIZE SUB DUP2 ADD SWAP1 PUSH2 0x7C SWAP2 SWAP1 PUSH2 0x929 JUMP JUMPDEST PUSH2 0x125 JUMP JUMPDEST STOP JUMPDEST PUSH2 0x9D PUSH1 0x4 DUP1 CALLDATASIZE SUB DUP2 ADD SWAP1 PUSH2 0x98 SWAP2 SWAP1 PUSH2 0x929 JUMP JUMPDEST PUSH2 0x257 JUMP JUMPDEST STOP JUMPDEST PUSH2 0xB9 PUSH1 0x4 DUP1 CALLDATASIZE SUB DUP2 ADD SWAP1 PUSH2 0xB4 SWAP2 SWAP1 PUSH2 0xA9C JUMP JUMPDEST PUSH2 0x3DD JUMP JUMPDEST STOP JUMPDEST PUSH2 0xC3 PUSH2 0x4D3 JUMP JUMPDEST PUSH1 0x40 MLOAD PUSH2 0xD0 SWAP2 SWAP1 PUSH2 0xCF4 JUMP JUMPDEST PUSH1 0x40 MLOAD DUP1 SWAP2 SUB SWAP1 RETURN JUMPDEST PUSH2 0xF3 PUSH1 0x4 DUP1 CALLDATASIZE SUB DUP2 ADD SWAP1 PUSH2 0xEE SWAP2 SWAP1 PUSH2 0xD16 JUMP JUMPDEST PUSH2 0x63F JUMP JUMPDEST STOP JUMPDEST PUSH2 0x10F PUSH1 0x4 DUP1 CALLDATASIZE SUB DUP2 ADD SWAP1 PUSH2 0x10A SWAP2 SWAP1 PUSH2 0x929 JUMP JUMPDEST PUSH2 0x756 JUMP JUMPDEST PUSH1 0x40 MLOAD PUSH2 0x11C SWAP2 SWAP1 PUSH2 0xDD5 JUMP JUMPDEST PUSH1 0x40 MLOAD DUP1 SWAP2 SUB SWAP1 RETURN JUMPDEST DUP1 PUSH1 0x0 DUP1 SLOAD SWAP1 POP DUP2 LT PUSH2 0x16D JUMPI PUSH1 0x40 MLOAD PUSH32 0x8C379A000000000000000000000000000000000000000000000000000000000 DUP2 MSTORE PUSH1 0x4 ADD PUSH2 0x164 SWAP1 PUSH2 0xE54 JUMP JUMPDEST PUSH1 0x40 MLOAD DUP1 SWAP2 SUB SWAP1 REVERT JUMPDEST PUSH1 0x0 DUP1 DUP4 DUP2 SLOAD DUP2 LT PUSH2 0x182 JUMPI PUSH2 0x181 PUSH2 0xE74 JUMP JUMPDEST JUMPDEST SWAP1 PUSH1 0x0 MSTORE PUSH1 0x20 PUSH1 0x0 KECCAK256 SWAP1 PUSH1 0x3 MUL ADD SWAP1 POP DUP1 PUSH1 0x2 ADD PUSH1 0x0 SWAP1 SLOAD SWAP1 PUSH2 0x100 EXP SWAP1 DIV PUSH20 0xFFFFFFFFFFFFFFFFFFFFFFFFFFFFFFFFFFFFFFFF AND PUSH20 0xFFFFFFFFFFFFFFFFFFFFFFFFFFFFFFFFFFFFFFFF AND CALLER PUSH20 0xFFFFFFFFFFFFFFFFFFFFFFFFFFFFFFFFFFFFFFFF AND EQ PUSH2 0x224 JUMPI PUSH1 0x40 MLOAD PUSH32 0x8C379A000000000000000000000000000000000000000000000000000000000 DUP2 MSTORE PUSH1 0x4 ADD PUSH2 0x21B SWAP1 PUSH2 0xF15 JUMP JUMPDEST PUSH1 0x40 MLOAD DUP1 SWAP2 SUB SWAP1 REVERT JUMPDEST DUP1 PUSH1 0x2 ADD PUSH1 0x14 SWAP1 SLOAD SWAP1 PUSH2 0x100 EXP SWAP1 DIV PUSH1 0xFF AND ISZERO DUP2 PUSH1 0x2 ADD PUSH1 0x14 PUSH2 0x100 EXP DUP2 SLOAD DUP2 PUSH1 0xFF MUL NOT AND SWAP1 DUP4 ISZERO ISZERO MUL OR SWAP1 SSTORE POP POP POP POP JUMP JUMPDEST DUP1 PUSH1 0x0 DUP1 SLOAD SWAP1 POP DUP2 LT PUSH2 0x29F JUMPI PUSH1 0x40 MLOAD PUSH32 0x8C379A000000000000000000000000000000000000000000000000000000000 DUP2 MSTORE PUSH1 0x4 ADD PUSH2 0x296 SWAP1 PUSH2 0xE54 JUMP JUMPDEST PUSH1 0x40 MLOAD DUP1 SWAP2 SUB SWAP1 REVERT JUMPDEST PUSH1 0x0 DUP1 DUP4 DUP2 SLOAD DUP2 LT PUSH2 0x2B4 JUMPI PUSH2 0x2B3 PUSH2 0xE74 JUMP JUMPDEST JUMPDEST SWAP1 PUSH1 0x0 MSTORE PUSH1 0x20 PUSH1 0x0 KECCAK256 SWAP1 PUSH1 0x3 MUL ADD SWAP1 POP DUP1 PUSH1 0x2 ADD PUSH1 0x0 SWAP1 SLOAD SWAP1 PUSH2 0x100 EXP SWAP1 DIV PUSH20 0xFFFFFFFFFFFFFFFFFFFFFFFFFFFFFFFFFFFFFFFF AND PUSH20 0xFFFFFFFFFFFFFFFFFFFFFFFFFFFFFFFFFFFFFFFF AND CALLER PUSH20 0xFFFFFFFFFFFFFFFFFFFFFFFFFFFFFFFFFFFFFFFF AND EQ PUSH2 0x356 JUMPI PUSH1 0x40 MLOAD PUSH32 0x8C379A000000000000000000000000000000000000000000000000000000000 DUP2 MSTORE PUSH1 0x4 ADD PUSH2 0x34D SWAP1 PUSH2 0xFA7 JUMP JUMPDEST PUSH1 0x40 MLOAD DUP1 SWAP2 SUB SWAP1 REVERT JUMPDEST PUSH1 0x0 DUP2 PUSH1 0x2 ADD PUSH1 0x0 PUSH2 0x100 EXP DUP2 SLOAD DUP2 PUSH20 0xFFFFFFFFFFFFFFFFFFFFFFFFFFFFFFFFFFFFFFFF MUL NOT AND SWAP1 DUP4 PUSH20 0xFFFFFFFFFFFFFFFFFFFFFFFFFFFFFFFFFFFFFFFF AND MUL OR SWAP1 SSTORE POP PUSH1 0x0 DUP2 PUSH1 0x2 ADD PUSH1 0x14 PUSH2 0x100 EXP DUP2 SLOAD DUP2 PUSH1 0xFF MUL NOT AND SWAP1 DUP4 ISZERO ISZERO MUL OR SWAP1 SSTORE POP PUSH1 0x40 MLOAD DUP1 PUSH1 0x20 ADD PUSH1 0x40 MSTORE DUP1 PUSH1 0x0 DUP2 MSTORE POP DUP2 PUSH1 0x1 ADD SWAP1 DUP2 PUSH2 0x3D7 SWAP2 SWAP1 PUSH2 0x11D3 JUMP JUMPDEST POP POP POP POP JUMP JUMPDEST PUSH1 0x0 PUSH1 0x40 MLOAD DUP1 PUSH1 0x80 ADD PUSH1 0x40 MSTORE DUP1 PUSH1 0x0 DUP1 SLOAD SWAP1 POP DUP2 MSTORE PUSH1 0x20 ADD DUP4 DUP2 MSTORE PUSH1 0x20 ADD CALLER PUSH20 0xFFFFFFFFFFFFFFFFFFFFFFFFFFFFFFFFFFFFFFFF AND DUP2 MSTORE PUSH1 0x20 ADD PUSH1 0x0 ISZERO ISZERO DUP2 MSTORE POP SWAP1 DUP1 PUSH1 0x1 DUP2 SLOAD ADD DUP1 DUP3 SSTORE DUP1 SWAP2 POP POP PUSH1 0x1 SWAP1 SUB SWAP1 PUSH1 0x0 MSTORE PUSH1 0x20 PUSH1 0x0 KECCAK256 SWAP1 PUSH1 0x3 MUL ADD PUSH1 0x0 SWAP1 SWAP2 SWAP1 SWAP2 SWAP1 SWAP2 POP PUSH1 0x0 DUP3 ADD MLOAD DUP2 PUSH1 0x0 ADD SSTORE PUSH1 0x20 DUP3 ADD MLOAD DUP2 PUSH1 0x1 ADD SWAP1 DUP2 PUSH2 0x466 SWAP2 SWAP1 PUSH2 0x11D3 JUMP JUMPDEST POP PUSH1 0x40 DUP3 ADD MLOAD DUP2 PUSH1 0x2 ADD PUSH1 0x0 PUSH2 0x100 EXP DUP2 SLOAD DUP2 PUSH20 0xFFFFFFFFFFFFFFFFFFFFFFFFFFFFFFFFFFFFFFFF MUL NOT AND SWAP1 DUP4 PUSH20 0xFFFFFFFFFFFFFFFFFFFFFFFFFFFFFFFFFFFFFFFF AND MUL OR SWAP1 SSTORE POP PUSH1 0x60 DUP3 ADD MLOAD DUP2 PUSH1 0x2 ADD PUSH1 0x14 PUSH2 0x100 EXP DUP2 SLOAD DUP2 PUSH1 0xFF MUL NOT AND SWAP1 DUP4 ISZERO ISZERO MUL OR SWAP1 SSTORE POP POP POP POP JUMP JUMPDEST PUSH1 0x60 PUSH1 0x0 DUP1 SLOAD DUP1 PUSH1 0x20 MUL PUSH1 0x20 ADD PUSH1 0x40 MLOAD SWAP1 DUP2 ADD PUSH1 0x40 MSTORE DUP1 SWAP3 SWAP2 SWAP1 DUP2 DUP2 MSTORE PUSH1 0x20 ADD PUSH1 0x0 SWAP1 JUMPDEST DUP3 DUP3 LT ISZERO PUSH2 0x636 JUMPI DUP4 DUP3 SWAP1 PUSH1 0x0 MSTORE PUSH1 0x20 PUSH1 0x0 KECCAK256 SWAP1 PUSH1 0x3 MUL ADD PUSH1 0x40 MLOAD DUP1 PUSH1 0x80 ADD PUSH1 0x40 MSTORE SWAP1 DUP2 PUSH1 0x0 DUP3 ADD SLOAD DUP2 MSTORE PUSH1 0x20 ADD PUSH1 0x1 DUP3 ADD DUP1 SLOAD PUSH2 0x534 SWAP1 PUSH2 0xFF6 JUMP JUMPDEST DUP1 PUSH1 0x1F ADD PUSH1 0x20 DUP1 SWAP2 DIV MUL PUSH1 0x20 ADD PUSH1 0x40 MLOAD SWAP1 DUP2 ADD PUSH1 0x40 MSTORE DUP1 SWAP3 SWAP2 SWAP1 DUP2 DUP2 MSTORE PUSH1 0x20 ADD DUP3 DUP1 SLOAD PUSH2 0x560 SWAP1 PUSH2 0xFF6 JUMP JUMPDEST DUP1 ISZERO PUSH2 0x5AD JUMPI DUP1 PUSH1 0x1F LT PUSH2 0x582 JUMPI PUSH2 0x100 DUP1 DUP4 SLOAD DIV MUL DUP4 MSTORE SWAP2 PUSH1 0x20 ADD SWAP2 PUSH2 0x5AD JUMP JUMPDEST DUP3 ADD SWAP2 SWAP1 PUSH1 0x0 MSTORE PUSH1 0x20 PUSH1 0x0 KECCAK256 SWAP1 JUMPDEST DUP2 SLOAD DUP2 MSTORE SWAP1 PUSH1 0x1 ADD SWAP1 PUSH1 0x20 ADD DUP1 DUP4 GT PUSH2 0x590 JUMPI DUP3 SWAP1 SUB PUSH1 0x1F AND DUP3 ADD SWAP2 JUMPDEST POP POP POP POP POP DUP2 MSTORE PUSH1 0x20 ADD PUSH1 0x2 DUP3 ADD PUSH1 0x0 SWAP1 SLOAD SWAP1 PUSH2 0x100 EXP SWAP1 DIV PUSH20 0xFFFFFFFFFFFFFFFFFFFFFFFFFFFFFFFFFFFFFFFF AND PUSH20 0xFFFFFFFFFFFFFFFFFFFFFFFFFFFFFFFFFFFFFFFF AND PUSH20 0xFFFFFFFFFFFFFFFFFFFFFFFFFFFFFFFFFFFFFFFF AND DUP2 MSTORE PUSH1 0x20 ADD PUSH1 0x2 DUP3 ADD PUSH1 0x14 SWAP1 SLOAD SWAP1 PUSH2 0x100 EXP SWAP1 DIV PUSH1 0xFF AND ISZERO ISZERO ISZERO ISZERO DUP2 MSTORE POP POP DUP2 MSTORE PUSH1 0x20 ADD SWAP1 PUSH1 0x1 ADD SWAP1 PUSH2 0x4F7 JUMP JUMPDEST POP POP POP POP SWAP1 POP SWAP1 JUMP JUMPDEST DUP2 PUSH1 0x0 DUP1 SLOAD SWAP1 POP DUP2 LT PUSH2 0x687 JUMPI PUSH1 0x40 MLOAD PUSH32 0x8C379A000000000000000000000000000000000000000000000000000000000 DUP2 MSTORE PUSH1 0x4 ADD PUSH2 0x67E SWAP1 PUSH2 0xE54 JUMP JUMPDEST PUSH1 0x40 MLOAD DUP1 SWAP2 SUB SWAP1 REVERT JUMPDEST PUSH1 0x0 DUP1 DUP5 DUP2 SLOAD DUP2 LT PUSH2 0x69C JUMPI PUSH2 0x69B PUSH2 0xE74 JUMP JUMPDEST JUMPDEST SWAP1 PUSH1 0x0 MSTORE PUSH1 0x20 PUSH1 0x0 KECCAK256 SWAP1 PUSH1 0x3 MUL ADD SWAP1 POP DUP1 PUSH1 0x2 ADD PUSH1 0x0 SWAP1 SLOAD SWAP1 PUSH2 0x100 EXP SWAP1 DIV PUSH20 0xFFFFFFFFFFFFFFFFFFFFFFFFFFFFFFFFFFFFFFFF AND PUSH20 0xFFFFFFFFFFFFFFFFFFFFFFFFFFFFFFFFFFFFFFFF AND CALLER PUSH20 0xFFFFFFFFFFFFFFFFFFFFFFFFFFFFFFFFFFFFFFFF AND EQ PUSH2 0x73E JUMPI PUSH1 0x40 MLOAD PUSH32 0x8C379A000000000000000000000000000000000000000000000000000000000 DUP2 MSTORE PUSH1 0x4 ADD PUSH2 0x735 SWAP1 PUSH2 0x1317 JUMP JUMPDEST PUSH1 0x40 MLOAD DUP1 SWAP2 SUB SWAP1 REVERT JUMPDEST DUP3 DUP2 PUSH1 0x1 ADD SWAP1 DUP2 PUSH2 0x74F SWAP2 SWAP1 PUSH2 0x11D3 JUMP JUMPDEST POP POP POP POP POP JUMP JUMPDEST PUSH2 0x75E PUSH2 0x89F JUMP JUMPDEST PUSH1 0x0 DUP3 DUP2 SLOAD DUP2 LT PUSH2 0x772 JUMPI PUSH2 0x771 PUSH2 0xE74 JUMP JUMPDEST JUMPDEST SWAP1 PUSH1 0x0 MSTORE PUSH1 0x20 PUSH1 0x0 KECCAK256 SWAP1 PUSH1 0x3 MUL ADD PUSH1 0x40 MLOAD DUP1 PUSH1 0x80 ADD PUSH1 0x40 MSTORE SWAP1 DUP2 PUSH1 0x0 DUP3 ADD SLOAD DUP2 MSTORE PUSH1 0x20 ADD PUSH1 0x1 DUP3 ADD DUP1 SLOAD PUSH2 0x7A5 SWAP1 PUSH2 0xFF6 JUMP JUMPDEST DUP1 PUSH1 0x1F ADD PUSH1 0x20 DUP1 SWAP2 DIV MUL PUSH1 0x20 ADD PUSH1 0x40 MLOAD SWAP1 DUP2 ADD PUSH1 0x40 MSTORE DUP1 SWAP3 SWAP2 SWAP1 DUP2 DUP2 MSTORE PUSH1 0x20 ADD DUP3 DUP1 SLOAD PUSH2 0x7D1 SWAP1 PUSH2 0xFF6 JUMP JUMPDEST DUP1 ISZERO PUSH2 0x81E JUMPI DUP1 PUSH1 0x1F LT PUSH2 0x7F3 JUMPI PUSH2 0x100 DUP1 DUP4 SLOAD DIV MUL DUP4 MSTORE SWAP2 PUSH1 0x20 ADD SWAP2 PUSH2 0x81E JUMP JUMPDEST DUP3 ADD SWAP2 SWAP1 PUSH1 0x0 MSTORE PUSH1 0x20 PUSH1 0x0 KECCAK256 SWAP1 JUMPDEST DUP2 SLOAD DUP2 MSTORE SWAP1 PUSH1 0x1 ADD SWAP1 PUSH1 0x20 ADD DUP1 DUP4 GT PUSH2 0x801 JUMPI DUP3 SWAP1 SUB PUSH1 0x1F AND DUP3 ADD SWAP2 JUMPDEST POP POP POP POP POP DUP2 MSTORE PUSH1 0x20 ADD PUSH1 0x2 DUP3 ADD PUSH1 0x0 SWAP1 SLOAD SWAP1 PUSH2 0x100 EXP SWAP1 DIV PUSH20 0xFFFFFFFFFFFFFFFFFFFFFFFFFFFFFFFFFFFFFFFF AND PUSH20 0xFFFFFFFFFFFFFFFFFFFFFFFFFFFFFFFFFFFFFFFF AND PUSH20 0xFFFFFFFFFFFFFFFFFFFFFFFFFFFFFFFFFFFFFFFF AND DUP2 MSTORE PUSH1 0x20 ADD PUSH1 0x2 DUP3 ADD PUSH1 0x14 SWAP1 SLOAD SWAP1 PUSH2 0x100 EXP SWAP1 DIV PUSH1 0xFF AND ISZERO ISZERO ISZERO ISZERO DUP2 MSTORE POP POP SWAP1 POP SWAP2 SWAP1 POP JUMP JUMPDEST PUSH1 0x40 MLOAD DUP1 PUSH1 0x80 ADD PUSH1 0x40 MSTORE DUP1 PUSH1 0x0 DUP2 MSTORE PUSH1 0x20 ADD PUSH1 0x60 DUP2 MSTORE PUSH1 0x20 ADD PUSH1 0x0 PUSH20 0xFFFFFFFFFFFFFFFFFFFFFFFFFFFFFFFFFFFFFFFF AND DUP2 MSTORE PUSH1 0x20 ADD PUSH1 0x0 ISZERO ISZERO DUP2 MSTORE POP SWAP1 JUMP JUMPDEST PUSH1 0x0 PUSH1 0x40 MLOAD SWAP1 POP SWAP1 JUMP JUMPDEST PUSH1 0x0 DUP1 REVERT JUMPDEST PUSH1 0x0 DUP1 REVERT JUMPDEST PUSH1 0x0 DUP2 SWAP1 POP SWAP2 SWAP1 POP JUMP JUMPDEST PUSH2 0x906 DUP2 PUSH2 0x8F3 JUMP JUMPDEST DUP2 EQ PUSH2 0x911 JUMPI PUSH1 0x0 DUP1 REVERT JUMPDEST POP JUMP JUMPDEST PUSH1 0x0 DUP2 CALLDATALOAD SWAP1 POP PUSH2 0x923 DUP2 PUSH2 0x8FD JUMP JUMPDEST SWAP3 SWAP2 POP POP JUMP JUMPDEST PUSH1 0x0 PUSH1 0x20 DUP3 DUP5 SUB SLT ISZERO PUSH2 0x93F JUMPI PUSH2 0x93E PUSH2 0x8E9 JUMP JUMPDEST JUMPDEST PUSH1 0x0 PUSH2 0x94D DUP5 DUP3 DUP6 ADD PUSH2 0x914 JUMP JUMPDEST SWAP2 POP POP SWAP3 SWAP2 POP POP JUMP JUMPDEST PUSH1 0x0 DUP1 REVERT JUMPDEST PUSH1 0x0 DUP1 REVERT JUMPDEST PUSH1 0x0 PUSH1 0x1F NOT PUSH1 0x1F DUP4 ADD AND SWAP1 POP SWAP2 SWAP1 POP JUMP JUMPDEST PUSH32 0x4E487B7100000000000000000000000000000000000000000000000000000000 PUSH1 0x0 MSTORE PUSH1 0x41 PUSH1 0x4 MSTORE PUSH1 0x24 PUSH1 0x0 REVERT JUMPDEST PUSH2 0x9A9 DUP3 PUSH2 0x960 JUMP JUMPDEST DUP2 ADD DUP2 DUP2 LT PUSH8 0xFFFFFFFFFFFFFFFF DUP3 GT OR ISZERO PUSH2 0x9C8 JUMPI PUSH2 0x9C7 PUSH2 0x971 JUMP JUMPDEST JUMPDEST DUP1 PUSH1 0x40 MSTORE POP POP POP JUMP JUMPDEST PUSH1 0x0 PUSH2 0x9DB PUSH2 0x8DF JUMP JUMPDEST SWAP1 POP PUSH2 0x9E7 DUP3 DUP3 PUSH2 0x9A0 JUMP JUMPDEST SWAP2 SWAP1 POP JUMP JUMPDEST PUSH1 0x0 PUSH8 0xFFFFFFFFFFFFFFFF DUP3 GT ISZERO PUSH2 0xA07 JUMPI PUSH2 0xA06 PUSH2 0x971 JUMP JUMPDEST JUMPDEST PUSH2 0xA10 DUP3 PUSH2 0x960 JUMP JUMPDEST SWAP1 POP PUSH1 0x20 DUP2 ADD SWAP1 POP SWAP2 SWAP1 POP JUMP JUMPDEST DUP3 DUP2 DUP4 CALLDATACOPY PUSH1 0x0 DUP4 DUP4 ADD MSTORE POP POP POP JUMP JUMPDEST PUSH1 0x0 PUSH2 0xA3F PUSH2 0xA3A DUP5 PUSH2 0x9EC JUMP JUMPDEST PUSH2 0x9D1 JUMP JUMPDEST SWAP1 POP DUP3 DUP2 MSTORE PUSH1 0x20 DUP2 ADD DUP5 DUP5 DUP5 ADD GT ISZERO PUSH2 0xA5B JUMPI PUSH2 0xA5A PUSH2 0x95B JUMP JUMPDEST JUMPDEST PUSH2 0xA66 DUP5 DUP3 DUP6 PUSH2 0xA1D JUMP JUMPDEST POP SWAP4 SWAP3 POP POP POP JUMP JUMPDEST PUSH1 0x0 DUP3 PUSH1 0x1F DUP4 ADD SLT PUSH2 0xA83 JUMPI PUSH2 0xA82 PUSH2 0x956 JUMP JUMPDEST JUMPDEST DUP2 CALLDATALOAD PUSH2 0xA93 DUP5 DUP3 PUSH1 0x20 DUP7 ADD PUSH2 0xA2C JUMP JUMPDEST SWAP2 POP POP SWAP3 SWAP2 POP POP JUMP JUMPDEST PUSH1 0x0 PUSH1 0x20 DUP3 DUP5 SUB SLT ISZERO PUSH2 0xAB2 JUMPI PUSH2 0xAB1 PUSH2 0x8E9 JUMP JUMPDEST JUMPDEST PUSH1 0x0 DUP3 ADD CALLDATALOAD PUSH8 0xFFFFFFFFFFFFFFFF DUP2 GT ISZERO PUSH2 0xAD0 JUMPI PUSH2 0xACF PUSH2 0x8EE JUMP JUMPDEST JUMPDEST PUSH2 0xADC DUP5 DUP3 DUP6 ADD PUSH2 0xA6E JUMP JUMPDEST SWAP2 POP POP SWAP3 SWAP2 POP POP JUMP JUMPDEST PUSH1 0x0 DUP2 MLOAD SWAP1 POP SWAP2 SWAP1 POP JUMP JUMPDEST PUSH1 0x0 DUP3 DUP3 MSTORE PUSH1 0x20 DUP3 ADD SWAP1 POP SWAP3 SWAP2 POP POP JUMP JUMPDEST PUSH1 0x0 DUP2 SWAP1 POP PUSH1 0x20 DUP3 ADD SWAP1 POP SWAP2 SWAP1 POP JUMP JUMPDEST PUSH2 0xB1A DUP2 PUSH2 0x8F3 JUMP JUMPDEST DUP3 MSTORE POP POP JUMP JUMPDEST PUSH1 0x0 DUP2 MLOAD SWAP1 POP SWAP2 SWAP1 POP JUMP JUMPDEST PUSH1 0x0 DUP3 DUP3 MSTORE PUSH1 0x20 DUP3 ADD SWAP1 POP SWAP3 SWAP2 POP POP JUMP JUMPDEST PUSH1 0x0 JUMPDEST DUP4 DUP2 LT ISZERO PUSH2 0xB5A JUMPI DUP1 DUP3 ADD MLOAD DUP2 DUP5 ADD MSTORE PUSH1 0x20 DUP2 ADD SWAP1 POP PUSH2 0xB3F JUMP JUMPDEST PUSH1 0x0 DUP5 DUP5 ADD MSTORE POP POP POP POP JUMP JUMPDEST PUSH1 0x0 PUSH2 0xB71 DUP3 PUSH2 0xB20 JUMP JUMPDEST PUSH2 0xB7B DUP2 DUP6 PUSH2 0xB2B JUMP JUMPDEST SWAP4 POP PUSH2 0xB8B DUP2 DUP6 PUSH1 0x20 DUP7 ADD PUSH2 0xB3C JUMP JUMPDEST PUSH2 0xB94 DUP2 PUSH2 0x960 JUMP JUMPDEST DUP5 ADD SWAP2 POP POP SWAP3 SWAP2 POP POP JUMP JUMPDEST PUSH1 0x0 PUSH20 0xFFFFFFFFFFFFFFFFFFFFFFFFFFFFFFFFFFFFFFFF DUP3 AND SWAP1 POP SWAP2 SWAP1 POP JUMP JUMPDEST PUSH1 0x0 PUSH2 0xBCA DUP3 PUSH2 0xB9F JUMP JUMPDEST SWAP1 POP SWAP2 SWAP1 POP JUMP JUMPDEST PUSH2 0xBDA DUP2 PUSH2 0xBBF JUMP JUMPDEST DUP3 MSTORE POP POP JUMP JUMPDEST PUSH1 0x0 DUP2 ISZERO ISZERO SWAP1 POP SWAP2 SWAP1 POP JUMP JUMPDEST PUSH2 0xBF5 DUP2 PUSH2 0xBE0 JUMP JUMPDEST DUP3 MSTORE POP POP JUMP JUMPDEST PUSH1 0x0 PUSH1 0x80 DUP4 ADD PUSH1 0x0 DUP4 ADD MLOAD PUSH2 0xC13 PUSH1 0x0 DUP7 ADD DUP3 PUSH2 0xB11 JUMP JUMPDEST POP PUSH1 0x20 DUP4 ADD MLOAD DUP5 DUP3 SUB PUSH1 0x20 DUP7 ADD MSTORE PUSH2 0xC2B DUP3 DUP3 PUSH2 0xB66 JUMP JUMPDEST SWAP2 POP POP PUSH1 0x40 DUP4 ADD MLOAD PUSH2 0xC40 PUSH1 0x40 DUP7 ADD DUP3 PUSH2 0xBD1 JUMP JUMPDEST POP PUSH1 0x60 DUP4 ADD MLOAD PUSH2 0xC53 PUSH1 0x60 DUP7 ADD DUP3 PUSH2 0xBEC JUMP JUMPDEST POP DUP1 SWAP2 POP POP SWAP3 SWAP2 POP POP JUMP JUMPDEST PUSH1 0x0 PUSH2 0xC6A DUP4 DUP4 PUSH2 0xBFB JUMP JUMPDEST SWAP1 POP SWAP3 SWAP2 POP POP JUMP JUMPDEST PUSH1 0x0 PUSH1 0x20 DUP3 ADD SWAP1 POP SWAP2 SWAP1 POP JUMP JUMPDEST PUSH1 0x0 PUSH2 0xC8A DUP3 PUSH2 0xAE5 JUMP JUMPDEST PUSH2 0xC94 DUP2 DUP6 PUSH2 0xAF0 JUMP JUMPDEST SWAP4 POP DUP4 PUSH1 0x20 DUP3 MUL DUP6 ADD PUSH2 0xCA6 DUP6 PUSH2 0xB01 JUMP JUMPDEST DUP1 PUSH1 0x0 JUMPDEST DUP6 DUP2 LT ISZERO PUSH2 0xCE2 JUMPI DUP5 DUP5 SUB DUP10 MSTORE DUP2 MLOAD PUSH2 0xCC3 DUP6 DUP3 PUSH2 0xC5E JUMP JUMPDEST SWAP5 POP PUSH2 0xCCE DUP4 PUSH2 0xC72 JUMP JUMPDEST SWAP3 POP PUSH1 0x20 DUP11 ADD SWAP10 POP POP PUSH1 0x1 DUP2 ADD SWAP1 POP PUSH2 0xCAA JUMP JUMPDEST POP DUP3 SWAP8 POP DUP8 SWAP6 POP POP POP POP POP POP SWAP3 SWAP2 POP POP JUMP JUMPDEST PUSH1 0x0 PUSH1 0x20 DUP3 ADD SWAP1 POP DUP2 DUP2 SUB PUSH1 0x0 DUP4 ADD MSTORE PUSH2 0xD0E DUP2 DUP5 PUSH2 0xC7F JUMP JUMPDEST SWAP1 POP SWAP3 SWAP2 POP POP JUMP JUMPDEST PUSH1 0x0 DUP1 PUSH1 0x40 DUP4 DUP6 SUB SLT ISZERO PUSH2 0xD2D JUMPI PUSH2 0xD2C PUSH2 0x8E9 JUMP JUMPDEST JUMPDEST PUSH1 0x0 PUSH2 0xD3B DUP6 DUP3 DUP7 ADD PUSH2 0x914 JUMP JUMPDEST SWAP3 POP POP PUSH1 0x20 DUP4 ADD CALLDATALOAD PUSH8 0xFFFFFFFFFFFFFFFF DUP2 GT ISZERO PUSH2 0xD5C JUMPI PUSH2 0xD5B PUSH2 0x8EE JUMP JUMPDEST JUMPDEST PUSH2 0xD68 DUP6 DUP3 DUP7 ADD PUSH2 0xA6E JUMP JUMPDEST SWAP2 POP POP SWAP3 POP SWAP3 SWAP1 POP JUMP JUMPDEST PUSH1 0x0 PUSH1 0x80 DUP4 ADD PUSH1 0x0 DUP4 ADD MLOAD PUSH2 0xD8A PUSH1 0x0 DUP7 ADD DUP3 PUSH2 0xB11 JUMP JUMPDEST POP PUSH1 0x20 DUP4 ADD MLOAD DUP5 DUP3 SUB PUSH1 0x20 DUP7 ADD MSTORE PUSH2 0xDA2 DUP3 DUP3 PUSH2 0xB66 JUMP JUMPDEST SWAP2 POP POP PUSH1 0x40 DUP4 ADD MLOAD PUSH2 0xDB7 PUSH1 0x40 DUP7 ADD DUP3 PUSH2 0xBD1 JUMP JUMPDEST POP PUSH1 0x60 DUP4 ADD MLOAD PUSH2 0xDCA PUSH1 0x60 DUP7 ADD DUP3 PUSH2 0xBEC JUMP JUMPDEST POP DUP1 SWAP2 POP POP SWAP3 SWAP2 POP POP JUMP JUMPDEST PUSH1 0x0 PUSH1 0x20 DUP3 ADD SWAP1 POP DUP2 DUP2 SUB PUSH1 0x0 DUP4 ADD MSTORE PUSH2 0xDEF DUP2 DUP5 PUSH2 0xD72 JUMP JUMPDEST SWAP1 POP SWAP3 SWAP2 POP POP JUMP JUMPDEST PUSH1 0x0 DUP3 DUP3 MSTORE PUSH1 0x20 DUP3 ADD SWAP1 POP SWAP3 SWAP2 POP POP JUMP JUMPDEST PUSH32 0x4F7574206F6620626F756E647300000000000000000000000000000000000000 PUSH1 0x0 DUP3 ADD MSTORE POP JUMP JUMPDEST PUSH1 0x0 PUSH2 0xE3E PUSH1 0xD DUP4 PUSH2 0xDF7 JUMP JUMPDEST SWAP2 POP PUSH2 0xE49 DUP3 PUSH2 0xE08 JUMP JUMPDEST PUSH1 0x20 DUP3 ADD SWAP1 POP SWAP2 SWAP1 POP JUMP JUMPDEST PUSH1 0x0 PUSH1 0x20 DUP3 ADD SWAP1 POP DUP2 DUP2 SUB PUSH1 0x0 DUP4 ADD MSTORE PUSH2 0xE6D DUP2 PUSH2 0xE31 JUMP JUMPDEST SWAP1 POP SWAP2 SWAP1 POP JUMP JUMPDEST PUSH32 0x4E487B7100000000000000000000000000000000000000000000000000000000 PUSH1 0x0 MSTORE PUSH1 0x32 PUSH1 0x4 MSTORE PUSH1 0x24 PUSH1 0x0 REVERT JUMPDEST PUSH32 0x4F6E6C79207468652063726561746F72206F662074686520746F646F20697465 PUSH1 0x0 DUP3 ADD MSTORE PUSH32 0x6D2063616E20746F67676C792069742E00000000000000000000000000000000 PUSH1 0x20 DUP3 ADD MSTORE POP JUMP JUMPDEST PUSH1 0x0 PUSH2 0xEFF PUSH1 0x30 DUP4 PUSH2 0xDF7 JUMP JUMPDEST SWAP2 POP PUSH2 0xF0A DUP3 PUSH2 0xEA3 JUMP JUMPDEST PUSH1 0x40 DUP3 ADD SWAP1 POP SWAP2 SWAP1 POP JUMP JUMPDEST PUSH1 0x0 PUSH1 0x20 DUP3 ADD SWAP1 POP DUP2 DUP2 SUB PUSH1 0x0 DUP4 ADD MSTORE PUSH2 0xF2E DUP2 PUSH2 0xEF2 JUMP JUMPDEST SWAP1 POP SWAP2 SWAP1 POP JUMP JUMPDEST PUSH32 0x4F6E6C79207468652063726561746F72206F662074686520746F646F20697465 PUSH1 0x0 DUP3 ADD MSTORE PUSH32 0x6D2063616E2064656C6574652069742E00000000000000000000000000000000 PUSH1 0x20 DUP3 ADD MSTORE POP JUMP JUMPDEST PUSH1 0x0 PUSH2 0xF91 PUSH1 0x30 DUP4 PUSH2 0xDF7 JUMP JUMPDEST SWAP2 POP PUSH2 0xF9C DUP3 PUSH2 0xF35 JUMP JUMPDEST PUSH1 0x40 DUP3 ADD SWAP1 POP SWAP2 SWAP1 POP JUMP JUMPDEST PUSH1 0x0 PUSH1 0x20 DUP3 ADD SWAP1 POP DUP2 DUP2 SUB PUSH1 0x0 DUP4 ADD MSTORE PUSH2 0xFC0 DUP2 PUSH2 0xF84 JUMP JUMPDEST SWAP1 POP SWAP2 SWAP1 POP JUMP JUMPDEST PUSH32 0x4E487B7100000000000000000000000000000000000000000000000000000000 PUSH1 0x0 MSTORE PUSH1 0x22 PUSH1 0x4 MSTORE PUSH1 0x24 PUSH1 0x0 REVERT JUMPDEST PUSH1 0x0 PUSH1 0x2 DUP3 DIV SWAP1 POP PUSH1 0x1 DUP3 AND DUP1 PUSH2 0x100E JUMPI PUSH1 0x7F DUP3 AND SWAP2 POP JUMPDEST PUSH1 0x20 DUP3 LT DUP2 SUB PUSH2 0x1021 JUMPI PUSH2 0x1020 PUSH2 0xFC7 JUMP JUMPDEST JUMPDEST POP SWAP2 SWAP1 POP JUMP JUMPDEST PUSH1 0x0 DUP2 SWAP1 POP DUP2 PUSH1 0x0 MSTORE PUSH1 0x20 PUSH1 0x0 KECCAK256 SWAP1 POP SWAP2 SWAP1 POP JUMP JUMPDEST PUSH1 0x0 PUSH1 0x20 PUSH1 0x1F DUP4 ADD DIV SWAP1 POP SWAP2 SWAP1 POP JUMP JUMPDEST PUSH1 0x0 DUP3 DUP3 SHL SWAP1 POP SWAP3 SWAP2 POP POP JUMP JUMPDEST PUSH1 0x0 PUSH1 0x8 DUP4 MUL PUSH2 0x1089 PUSH32 0xFFFFFFFFFFFFFFFFFFFFFFFFFFFFFFFFFFFFFFFFFFFFFFFFFFFFFFFFFFFFFFFF DUP3 PUSH2 0x104C JUMP JUMPDEST PUSH2 0x1093 DUP7 DUP4 PUSH2 0x104C JUMP JUMPDEST SWAP6 POP DUP1 NOT DUP5 AND SWAP4 POP DUP1 DUP7 AND DUP5 OR SWAP3 POP POP POP SWAP4 SWAP3 POP POP POP JUMP JUMPDEST PUSH1 0x0 DUP2 SWAP1 POP SWAP2 SWAP1 POP JUMP JUMPDEST PUSH1 0x0 PUSH2 0x10D0 PUSH2 0x10CB PUSH2 0x10C6 DUP5 PUSH2 0x8F3 JUMP JUMPDEST PUSH2 0x10AB JUMP JUMPDEST PUSH2 0x8F3 JUMP JUMPDEST SWAP1 POP SWAP2 SWAP1 POP JUMP JUMPDEST PUSH1 0x0 DUP2 SWAP1 POP SWAP2 SWAP1 POP JUMP JUMPDEST PUSH2 0x10EA DUP4 PUSH2 0x10B5 JUMP JUMPDEST PUSH2 0x10FE PUSH2 0x10F6 DUP3 PUSH2 0x10D7 JUMP JUMPDEST DUP5 DUP5 SLOAD PUSH2 0x1059 JUMP JUMPDEST DUP3 SSTORE POP POP POP POP JUMP JUMPDEST PUSH1 0x0 SWAP1 JUMP JUMPDEST PUSH2 0x1113 PUSH2 0x1106 JUMP JUMPDEST PUSH2 0x111E DUP2 DUP5 DUP5 PUSH2 0x10E1 JUMP JUMPDEST POP POP POP JUMP JUMPDEST JUMPDEST DUP2 DUP2 LT ISZERO PUSH2 0x1142 JUMPI PUSH2 0x1137 PUSH1 0x0 DUP3 PUSH2 0x110B JUMP JUMPDEST PUSH1 0x1 DUP2 ADD SWAP1 POP PUSH2 0x1124 JUMP JUMPDEST POP POP JUMP JUMPDEST PUSH1 0x1F DUP3 GT ISZERO PUSH2 0x1187 JUMPI PUSH2 0x1158 DUP2 PUSH2 0x1027 JUMP JUMPDEST PUSH2 0x1161 DUP5 PUSH2 0x103C JUMP JUMPDEST DUP2 ADD PUSH1 0x20 DUP6 LT ISZERO PUSH2 0x1170 JUMPI DUP2 SWAP1 POP JUMPDEST PUSH2 0x1184 PUSH2 0x117C DUP6 PUSH2 0x103C JUMP JUMPDEST DUP4 ADD DUP3 PUSH2 0x1123 JUMP JUMPDEST POP POP JUMPDEST POP POP POP JUMP JUMPDEST PUSH1 0x0 DUP3 DUP3 SHR SWAP1 POP SWAP3 SWAP2 POP POP JUMP JUMPDEST PUSH1 0x0 PUSH2 0x11AA PUSH1 0x0 NOT DUP5 PUSH1 0x8 MUL PUSH2 0x118C JUMP JUMPDEST NOT DUP1 DUP4 AND SWAP2 POP POP SWAP3 SWAP2 POP POP JUMP JUMPDEST PUSH1 0x0 PUSH2 0x11C3 DUP4 DUP4 PUSH2 0x1199 JUMP JUMPDEST SWAP2 POP DUP3 PUSH1 0x2 MUL DUP3 OR SWAP1 POP SWAP3 SWAP2 POP POP JUMP JUMPDEST PUSH2 0x11DC DUP3 PUSH2 0xB20 JUMP JUMPDEST PUSH8 0xFFFFFFFFFFFFFFFF DUP2 GT ISZERO PUSH2 0x11F5 JUMPI PUSH2 0x11F4 PUSH2 0x971 JUMP JUMPDEST JUMPDEST PUSH2 0x11FF DUP3 SLOAD PUSH2 0xFF6 JUMP JUMPDEST PUSH2 0x120A DUP3 DUP3 DUP6 PUSH2 0x1146 JUMP JUMPDEST PUSH1 0x0 PUSH1 0x20 SWAP1 POP PUSH1 0x1F DUP4 GT PUSH1 0x1 DUP2 EQ PUSH2 0x123D JUMPI PUSH1 0x0 DUP5 ISZERO PUSH2 0x122B JUMPI DUP3 DUP8 ADD MLOAD SWAP1 POP JUMPDEST PUSH2 0x1235 DUP6 DUP3 PUSH2 0x11B7 JUMP JUMPDEST DUP7 SSTORE POP PUSH2 0x129D JUMP JUMPDEST PUSH1 0x1F NOT DUP5 AND PUSH2 0x124B DUP7 PUSH2 0x1027 JUMP JUMPDEST PUSH1 0x0 JUMPDEST DUP3 DUP2 LT ISZERO PUSH2 0x1273 JUMPI DUP5 DUP10 ADD MLOAD DUP3 SSTORE PUSH1 0x1 DUP3 ADD SWAP2 POP PUSH1 0x20 DUP6 ADD SWAP5 POP PUSH1 0x20 DUP2 ADD SWAP1 POP PUSH2 0x124E JUMP JUMPDEST DUP7 DUP4 LT ISZERO PUSH2 0x1290 JUMPI DUP5 DUP10 ADD MLOAD PUSH2 0x128C PUSH1 0x1F DUP10 AND DUP3 PUSH2 0x1199 JUMP JUMPDEST DUP4 SSTORE POP JUMPDEST PUSH1 0x1 PUSH1 0x2 DUP9 MUL ADD DUP9 SSTORE POP POP POP JUMPDEST POP POP POP POP POP POP JUMP JUMPDEST PUSH32 0x4F6E6C79207468652063726561746F72206F662074686520746F646F20697465 PUSH1 0x0 DUP3 ADD MSTORE PUSH32 0x6D2063616E206D6F646966792069742E00000000000000000000000000000000 PUSH1 0x20 DUP3 ADD MSTORE POP JUMP JUMPDEST PUSH1 0x0 PUSH2 0x1301 PUSH1 0x30 DUP4 PUSH2 0xDF7 JUMP JUMPDEST SWAP2 POP PUSH2 0x130C DUP3 PUSH2 0x12A5 JUMP JUMPDEST PUSH1 0x40 DUP3 ADD SWAP1 POP SWAP2 SWAP1 POP JUMP JUMPDEST PUSH1 0x0 PUSH1 0x20 DUP3 ADD SWAP1 POP DUP2 DUP2 SUB PUSH1 0x0 DUP4 ADD MSTORE PUSH2 0x1330 DUP2 PUSH2 0x12F4 JUMP JUMPDEST SWAP1 POP SWAP2 SWAP1 POP JUMP INVALID LOG2 PUSH5 0x6970667358 0x22 SLT KECCAK256 MULMOD SWAP10 DUP13 0xA5 POP 0xEE 0xD6 DUP5 0xB4 0xD7 PUSH8 0x17346F327AB40C3B BALANCE LOG0 SDIV PUSH8 0x9154238F346B0B7 CALLVALUE PUSH5 0x736F6C6343 STOP ADDMOD GT STOP CALLER "},"methodIdentifiers":{"addTodoItem(string)":"79f2d5e3","deleteTodo(uint256)":"6e3c6738","getAllTodos()":"ce2bd5d5","getTodo(uint256)":"dd68afb6","toggleTask(uint256)":"613137a4","updateTodo(uint256,string)":"d534ee88"}}}}}