{"contracts/TodoList.sol":{"TodoList":{"abi":[{"inputs":[{"internalType":"string","name":"text_","type":"string"}],"name":"addTodoItem","outputs":[],"stateMutability":"nonpayable","type":"function"},{"inputs":[{"internalType":"uint256","name":"id_","type":"uint256"}],"name":"deleteTodo","outputs":[],"stateMutability":"nonpayable","type":"function"},{"inputs":[],"name":"getAllTodos","outputs":[{"components":[{"internalType":"uint256","name":"id","type":"uint256"},{"internalType":"string","name":"text","type":"string"},{"internalType":"address","name":"creator","type":"address"},{"internalType":"bool","name":"isCompleted","type":"bool"}],"internalType":"struct TodoList.TodoItem[]","name":"","type":"tuple[]"}],"stateMutability":"view","type":"function"},{"inputs":[{"internalType":"uint256","name":"id_","type":"uint256"}],"name":"getTodo","outputs":[{"components":[{"internalType":"uint256","name":"id","type":"uint256"},{"internalType":"string","name":"text","type":"string"},{"internalType":"address","name":"creator","type":"address"},{"internalType":"bool","name":"isCompleted","type":"bool"}],"internalType":"struct TodoList.TodoItem","name":"","type":"tuple"}],"stateMutability":"view","type":"function"},{"inputs":[{"internalType":"uint256","name":"id_","type":"uint256"}],"name":"toggleTask","outputs":[],"stateMutability":"nonpayable","type":"function"},{"inputs":[{"internalType":"uint256","name":"id_","type":"uint256"},{"internalType":"string","name":"text_","type":"string"}],"name":"updateTodo","outputs":[],"stateMutability":"nonpayable","type":"function"}],"evm":{"bytecode":{"linkReferences":{},"object":"608060405234801561001057600080fd5b506113dc806100206000396000f3fe608060405234801561001057600080fd5b50600436106100625760003560e01c8063613137a4146100675780636e3c67381461008357806379f2d5e31461009f578063ce2bd5d5146100bb578063d534ee88146100d9578063dd68afb6146100f5575b600080fd5b610081600480360381019061007c9190610935565b610125565b005b61009d60048036038101906100989190610935565b610257565b005b6100b960048036038101906100b49190610aa8565b6103dd565b005b6100c36104df565b6040516100d09190610d00565b60405180910390f35b6100f360048036038101906100ee9190610d22565b61064b565b005b61010f600480360381019061010a9190610935565b610762565b60405161011c9190610de1565b60405180910390f35b80600080549050811061016d576040517f08c379a000000000000000000000000000000000000000000000000000000000815260040161016490610e60565b60405180910390fd5b600080838154811061018257610181610e80565b5b906000526020600020906003020190508060020160009054906101000a900473ffffffffffffffffffffffffffffffffffffffff1673ffffffffffffffffffffffffffffffffffffffff163373ffffffffffffffffffffffffffffffffffffffff1614610224576040517f08c379a000000000000000000000000000000000000000000000000000000000815260040161021b90610f21565b60405180910390fd5b8060020160149054906101000a900460ff16158160020160146101000a81548160ff021916908315150217905550505050565b80600080549050811061029f576040517f08c379a000000000000000000000000000000000000000000000000000000000815260040161029690610e60565b60405180910390fd5b60008083815481106102b4576102b3610e80565b5b906000526020600020906003020190508060020160009054906101000a900473ffffffffffffffffffffffffffffffffffffffff1673ffffffffffffffffffffffffffffffffffffffff163373ffffffffffffffffffffffffffffffffffffffff1614610356576040517f08c379a000000000000000000000000000000000000000000000000000000000815260040161034d90610fb3565b60405180910390fd5b60008160020160006101000a81548173ffffffffffffffffffffffffffffffffffffffff021916908373ffffffffffffffffffffffffffffffffffffffff16021790555060008160020160146101000a81548160ff021916908315150217905550604051806020016040528060008152508160010190816103d791906111df565b50505050565b6000604051806080016040528060016000805490506103fc91906112e0565b81526020018381526020013373ffffffffffffffffffffffffffffffffffffffff16815260200160001515815250908060018154018082558091505060019003906000526020600020906003020160009091909190915060008201518160000155602082015181600101908161047291906111df565b5060408201518160020160006101000a81548173ffffffffffffffffffffffffffffffffffffffff021916908373ffffffffffffffffffffffffffffffffffffffff16021790555060608201518160020160146101000a81548160ff021916908315150217905550505050565b60606000805480602002602001604051908101604052809291908181526020016000905b8282101561064257838290600052602060002090600302016040518060800160405290816000820154815260200160018201805461054090611002565b80601f016020809104026020016040519081016040528092919081815260200182805461056c90611002565b80156105b95780601f1061058e576101008083540402835291602001916105b9565b820191906000526020600020905b81548152906001019060200180831161059c57829003601f168201915b505050505081526020016002820160009054906101000a900473ffffffffffffffffffffffffffffffffffffffff1673ffffffffffffffffffffffffffffffffffffffff1673ffffffffffffffffffffffffffffffffffffffff1681526020016002820160149054906101000a900460ff16151515158152505081526020019060010190610503565b50505050905090565b816000805490508110610693576040517f08c379a000000000000000000000000000000000000000000000000000000000815260040161068a90610e60565b60405180910390fd5b60008084815481106106a8576106a7610e80565b5b906000526020600020906003020190508060020160009054906101000a900473ffffffffffffffffffffffffffffffffffffffff1673ffffffffffffffffffffffffffffffffffffffff163373ffffffffffffffffffffffffffffffffffffffff161461074a576040517f08c379a000000000000000000000000000000000000000000000000000000000815260040161074190611386565b60405180910390fd5b8281600101908161075b91906111df565b5050505050565b61076a6108ab565b6000828154811061077e5761077d610e80565b5b9060005260206000209060030201604051806080016040529081600082015481526020016001820180546107b190611002565b80601f01602080910402602001604051908101604052809291908181526020018280546107dd90611002565b801561082a5780601f106107ff5761010080835404028352916020019161082a565b820191906000526020600020905b81548152906001019060200180831161080d57829003601f168201915b505050505081526020016002820160009054906101000a900473ffffffffffffffffffffffffffffffffffffffff1673ffffffffffffffffffffffffffffffffffffffff1673ffffffffffffffffffffffffffffffffffffffff1681526020016002820160149054906101000a900460ff1615151515815250509050919050565b60405180608001604052806000815260200160608152602001600073ffffffffffffffffffffffffffffffffffffffff1681526020016000151581525090565b6000604051905090565b600080fd5b600080fd5b6000819050919050565b610912816108ff565b811461091d57600080fd5b50565b60008135905061092f81610909565b92915050565b60006020828403121561094b5761094a6108f5565b5b600061095984828501610920565b91505092915050565b600080fd5b600080fd5b6000601f19601f8301169050919050565b7f4e487b7100000000000000000000000000000000000000000000000000000000600052604160045260246000fd5b6109b58261096c565b810181811067ffffffffffffffff821117156109d4576109d361097d565b5b80604052505050565b60006109e76108eb565b90506109f382826109ac565b919050565b600067ffffffffffffffff821115610a1357610a1261097d565b5b610a1c8261096c565b9050602081019050919050565b82818337600083830152505050565b6000610a4b610a46846109f8565b6109dd565b905082815260208101848484011115610a6757610a66610967565b5b610a72848285610a29565b509392505050565b600082601f830112610a8f57610a8e610962565b5b8135610a9f848260208601610a38565b91505092915050565b600060208284031215610abe57610abd6108f5565b5b600082013567ffffffffffffffff811115610adc57610adb6108fa565b5b610ae884828501610a7a565b91505092915050565b600081519050919050565b600082825260208201905092915050565b6000819050602082019050919050565b610b26816108ff565b82525050565b600081519050919050565b600082825260208201905092915050565b60005b83811015610b66578082015181840152602081019050610b4b565b60008484015250505050565b6000610b7d82610b2c565b610b878185610b37565b9350610b97818560208601610b48565b610ba08161096c565b840191505092915050565b600073ffffffffffffffffffffffffffffffffffffffff82169050919050565b6000610bd682610bab565b9050919050565b610be681610bcb565b82525050565b60008115159050919050565b610c0181610bec565b82525050565b6000608083016000830151610c1f6000860182610b1d565b5060208301518482036020860152610c378282610b72565b9150506040830151610c4c6040860182610bdd565b506060830151610c5f6060860182610bf8565b508091505092915050565b6000610c768383610c07565b905092915050565b6000602082019050919050565b6000610c9682610af1565b610ca08185610afc565b935083602082028501610cb285610b0d565b8060005b85811015610cee5784840389528151610ccf8582610c6a565b9450610cda83610c7e565b925060208a01995050600181019050610cb6565b50829750879550505050505092915050565b60006020820190508181036000830152610d1a8184610c8b565b905092915050565b60008060408385031215610d3957610d386108f5565b5b6000610d4785828601610920565b925050602083013567ffffffffffffffff811115610d6857610d676108fa565b5b610d7485828601610a7a565b9150509250929050565b6000608083016000830151610d966000860182610b1d565b5060208301518482036020860152610dae8282610b72565b9150506040830151610dc36040860182610bdd565b506060830151610dd66060860182610bf8565b508091505092915050565b60006020820190508181036000830152610dfb8184610d7e565b905092915050565b600082825260208201905092915050565b7f4f7574206f6620626f756e647300000000000000000000000000000000000000600082015250565b6000610e4a600d83610e03565b9150610e5582610e14565b602082019050919050565b60006020820190508181036000830152610e7981610e3d565b9050919050565b7f4e487b7100000000000000000000000000000000000000000000000000000000600052603260045260246000fd5b7f4f6e6c79207468652063726561746f72206f662074686520746f646f2069746560008201527f6d2063616e20746f67676c792069742e00000000000000000000000000000000602082015250565b6000610f0b603083610e03565b9150610f1682610eaf565b604082019050919050565b60006020820190508181036000830152610f3a81610efe565b9050919050565b7f4f6e6c79207468652063726561746f72206f662074686520746f646f2069746560008201527f6d2063616e2064656c6574652069742e00000000000000000000000000000000602082015250565b6000610f9d603083610e03565b9150610fa882610f41565b604082019050919050565b60006020820190508181036000830152610fcc81610f90565b9050919050565b7f4e487b7100000000000000000000000000000000000000000000000000000000600052602260045260246000fd5b6000600282049050600182168061101a57607f821691505b60208210810361102d5761102c610fd3565b5b50919050565b60008190508160005260206000209050919050565b60006020601f8301049050919050565b600082821b905092915050565b6000600883026110957fffffffffffffffffffffffffffffffffffffffffffffffffffffffffffffffff82611058565b61109f8683611058565b95508019841693508086168417925050509392505050565b6000819050919050565b60006110dc6110d76110d2846108ff565b6110b7565b6108ff565b9050919050565b6000819050919050565b6110f6836110c1565b61110a611102826110e3565b848454611065565b825550505050565b600090565b61111f611112565b61112a8184846110ed565b505050565b5b8181101561114e57611143600082611117565b600181019050611130565b5050565b601f8211156111935761116481611033565b61116d84611048565b8101602085101561117c578190505b61119061118885611048565b83018261112f565b50505b505050565b600082821c905092915050565b60006111b660001984600802611198565b1980831691505092915050565b60006111cf83836111a5565b9150826002028217905092915050565b6111e882610b2c565b67ffffffffffffffff8111156112015761120061097d565b5b61120b8254611002565b611216828285611152565b600060209050601f8311600181146112495760008415611237578287015190505b61124185826111c3565b8655506112a9565b601f19841661125786611033565b60005b8281101561127f5784890151825560018201915060208501945060208101905061125a565b8683101561129c5784890151611298601f8916826111a5565b8355505b6001600288020188555050505b505050505050565b7f4e487b7100000000000000000000000000000000000000000000000000000000600052601160045260246000fd5b60006112eb826108ff565b91506112f6836108ff565b925082820190508082111561130e5761130d6112b1565b5b92915050565b7f4f6e6c79207468652063726561746f72206f662074686520746f646f2069746560008201527f6d2063616e206d6f646966792069742e00000000000000000000000000000000602082015250565b6000611370603083610e03565b915061137b82611314565b604082019050919050565b6000602082019050818103600083015261139f81611363565b905091905056fea2646970667358221220678882a2e7e448f4cbdd730f9fcdc71f52641d3a2dd6d8aa9573bc4aba47ecf164736f6c63430008110033","opcodes":"PUSH1 0x80 PUSH1 0x40 MSTORE CALLVALUE DUP1 ISZERO PUSH2 0x10 JUMPI PUSH1 0x0 DUP1 REVERT JUMPDEST POP PUSH2 0x13DC DUP1 PUSH2 0x20 PUSH1 0x0 CODECOPY PUSH1 0x0 RETURN INVALID PUSH1 0x80 PUSH1 0x40 MSTORE CALLVALUE DUP1 ISZERO PUSH2 0x10 JUMPI PUSH1 0x0 DUP1 REVERT JUMPDEST POP PUSH1 0x4 CALLDATASIZE LT PUSH2 0x62 JUMPI PUSH1 0x0 CALLDATALOAD PUSH1 0xE0 SHR DUP1 PUSH4 0x613137A4 EQ PUSH2 0x67 JUMPI DUP1 PUSH4 0x6E3C6738 EQ PUSH2 0x83 JUMPI DUP1 PUSH4 0x79F2D5E3 EQ PUSH2 0x9F JUMPI DUP1 PUSH4 0xCE2BD5D5 EQ PUSH2 0xBB JUMPI DUP1 PUSH4 0xD534EE88 EQ PUSH2 0xD9 JUMPI DUP1 PUSH4 0xDD68AFB6 EQ PUSH2 0xF5 JUMPI JUMPDEST PUSH1 0x0 DUP1 REVERT JUMPDEST PUSH2 0x81 PUSH1 0x4 DUP1 CALLDATASIZE SUB DUP2 ADD SWAP1 PUSH2 0x7C SWAP2 SWAP1 PUSH2 0x935 JUMP JUMPDEST PUSH2 0x125 JUMP JUMPDEST STOP JUMPDEST PUSH2 0x9D PUSH1 0x4 DUP1 CALLDATASIZE SUB DUP2 ADD SWAP1 PUSH2 0x98 SWAP2 SWAP1 PUSH2 0x935 JUMP JUMPDEST PUSH2 0x257 JUMP JUMPDEST STOP JUMPDEST PUSH2 0xB9 PUSH1 0x4 DUP1 CALLDATASIZE SUB DUP2 ADD SWAP1 PUSH2 0xB4 SWAP2 SWAP1 PUSH2 0xAA8 JUMP JUMPDEST PUSH2 0x3DD JUMP JUMPDEST STOP JUMPDEST PUSH2 0xC3 PUSH2 0x4DF JUMP JUMPDEST PUSH1 0x40 MLOAD PUSH2 0xD0 SWAP2 SWAP1 PUSH2 0xD00 JUMP JUMPDEST PUSH1 0x40 MLOAD DUP1 SWAP2 SUB SWAP1 RETURN JUMPDEST PUSH2 0xF3 PUSH1 0x4 DUP1 CALLDATASIZE SUB DUP2 ADD SWAP1 PUSH2 0xEE SWAP2 SWAP1 PUSH2 0xD22 JUMP JUMPDEST PUSH2 0x64B JUMP JUMPDEST STOP JUMPDEST PUSH2 0x10F PUSH1 0x4 DUP1 CALLDATASIZE SUB DUP2 ADD SWAP1 PUSH2 0x10A SWAP2 SWAP1 PUSH2 0x935 JUMP JUMPDEST PUSH2 0x762 JUMP JUMPDEST PUSH1 0x40 MLOAD PUSH2 0x11C SWAP2 SWAP1 PUSH2 0xDE1 JUMP JUMPDEST PUSH1 0x40 MLOAD DUP1 SWAP2 SUB SWAP1 RETURN JUMPDEST DUP1 PUSH1 0x0 DUP1 SLOAD SWAP1 POP DUP2 LT PUSH2 0x16D JUMPI PUSH1 0x40 MLOAD PUSH32 0x8C379A000000000000000000000000000000000000000000000000000000000 DUP2 MSTORE PUSH1 0x4 ADD PUSH2 0x164 SWAP1 PUSH2 0xE60 JUMP JUMPDEST PUSH1 0x40 MLOAD DUP1 SWAP2 SUB SWAP1 REVERT JUMPDEST PUSH1 0x0 DUP1 DUP4 DUP2 SLOAD DUP2 LT PUSH2 0x182 JUMPI PUSH2 0x181 PUSH2 0xE80 JUMP JUMPDEST JUMPDEST SWAP1 PUSH1 0x0 MSTORE PUSH1 0x20 PUSH1 0x0 KECCAK256 SWAP1 PUSH1 0x3 MUL ADD SWAP1 POP DUP1 PUSH1 0x2 ADD PUSH1 0x0 SWAP1 SLOAD SWAP1 PUSH2 0x100 EXP SWAP1 DIV PUSH20 0xFFFFFFFFFFFFFFFFFFFFFFFFFFFFFFFFFFFFFFFF AND PUSH20 0xFFFFFFFFFFFFFFFFFFFFFFFFFFFFFFFFFFFFFFFF AND CALLER PUSH20 0xFFFFFFFFFFFFFFFFFFFFFFFFFFFFFFFFFFFFFFFF AND EQ PUSH2 0x224 JUMPI PUSH1 0x40 MLOAD PUSH32 0x8C379A000000000000000000000000000000000000000000000000000000000 DUP2 MSTORE PUSH1 0x4 ADD PUSH2 0x21B SWAP1 PUSH2 0xF21 JUMP JUMPDEST PUSH1 0x40 MLOAD DUP1 SWAP2 SUB SWAP1 REVERT JUMPDEST DUP1 PUSH1 0x2 ADD PUSH1 0x14 SWAP1 SLOAD SWAP1 PUSH2 0x100 EXP SWAP1 DIV PUSH1 0xFF AND ISZERO DUP2 PUSH1 0x2 ADD PUSH1 0x14 PUSH2 0x100 EXP DUP2 SLOAD DUP2 PUSH1 0xFF MUL NOT AND SWAP1 DUP4 ISZERO ISZERO MUL OR SWAP1 SSTORE POP POP POP POP JUMP JUMPDEST DUP1 PUSH1 0x0 DUP1 SLOAD SWAP1 POP DUP2 LT PUSH2 0x29F JUMPI PUSH1 0x40 MLOAD PUSH32 0x8C379A000000000000000000000000000000000000000000000000000000000 DUP2 MSTORE PUSH1 0x4 ADD PUSH2 0x296 SWAP1 PUSH2 0xE60 JUMP JUMPDEST PUSH1 0x40 MLOAD DUP1 SWAP2 SUB SWAP1 REVERT JUMPDEST PUSH1 0x0 DUP1 DUP4 DUP2 SLOAD DUP2 LT PUSH2 0x2B4 JUMPI PUSH2 0x2B3 PUSH2 0xE80 JUMP JUMPDEST JUMPDEST SWAP1 PUSH1 0x0 MSTORE PUSH1 0x20 PUSH1 0x0 KECCAK256 SWAP1 PUSH1 0x3 MUL ADD SWAP1 POP DUP1 PUSH1 0x2 ADD PUSH1 0x0 SWAP1 SLOAD SWAP1 PUSH2 0x100 EXP SWAP1 DIV PUSH20 0xFFFFFFFFFFFFFFFFFFFFFFFFFFFFFFFFFFFFFFFF AND PUSH20 0xFFFFFFFFFFFFFFFFFFFFFFFFFFFFFFFFFFFFFFFF AND CALLER PUSH20 0xFFFFFFFFFFFFFFFFFFFFFFFFFFFFFFFFFFFFFFFF AND EQ PUSH2 0x356 JUMPI PUSH1 0x40 MLOAD PUSH32 0x8C379A000000000000000000000000000000000000000000000000000000000 DUP2 MSTORE PUSH1 0x4 ADD PUSH2 0x34D SWAP1 PUSH2 0xFB3 JUMP JUMPDEST PUSH1 0x40 MLOAD DUP1 SWAP2 SUB SWAP1 REVERT JUMPDEST PUSH1 0x0 DUP2 PUSH1 0x2 ADD PUSH1 0x0 PUSH2 0x100 EXP DUP2 SLOAD DUP2 PUSH20 0xFFFFFFFFFFFFFFFFFFFFFFFFFFFFFFFFFFFFFFFF MUL NOT AND SWAP1 DUP4 PUSH20 0xFFFFFFFFFFFFFFFFFFFFFFFFFFFFFFFFFFFFFFFF AND MUL OR SWAP1 SSTORE POP PUSH1 0x0 DUP2 PUSH1 0x2 ADD PUSH1 0x14 PUSH2 0x100 EXP DUP2 SLOAD DUP2 PUSH1 0xFF MUL NOT AND SWAP1 DUP4 ISZERO ISZERO MUL OR SWAP1 SSTORE POP PUSH1 0x40 MLOAD DUP1 PUSH1 0x20 ADD PUSH1 0x40 MSTORE DUP1 PUSH1 0x0 DUP2 MSTORE POP DUP2 PUSH1 0x1 ADD SWAP1 DUP2 PUSH2 0x3D7 SWAP2 SWAP1 PUSH2 0x11DF JUMP JUMPDEST POP POP POP POP JUMP JUMPDEST PUSH1 0x0 PUSH1 0x40 MLOAD DUP1 PUSH1 0x80 ADD PUSH1 0x40 MSTORE DUP1 PUSH1 0x1 PUSH1 0x0 DUP1 SLOAD SWAP1 POP PUSH2 0x3FC SWAP2 SWAP1 PUSH2 0x12E0 JUMP JUMPDEST DUP2 MSTORE PUSH1 0x20 ADD DUP4 DUP2 MSTORE PUSH1 0x20 ADD CALLER PUSH20 0xFFFFFFFFFFFFFFFFFFFFFFFFFFFFFFFFFFFFFFFF AND DUP2 MSTORE PUSH1 0x20 ADD PUSH1 0x0 ISZERO ISZERO DUP2 MSTORE POP SWAP1 DUP1 PUSH1 0x1 DUP2 SLOAD ADD DUP1 DUP3 SSTORE DUP1 SWAP2 POP POP PUSH1 0x1 SWAP1 SUB SWAP1 PUSH1 0x0 MSTORE PUSH1 0x20 PUSH1 0x0 KECCAK256 SWAP1 PUSH1 0x3 MUL ADD PUSH1 0x0 SWAP1 SWAP2 SWAP1 SWAP2 SWAP1 SWAP2 POP PUSH1 0x0 DUP3 ADD MLOAD DUP2 PUSH1 0x0 ADD SSTORE PUSH1 0x20 DUP3 ADD MLOAD DUP2 PUSH1 0x1 ADD SWAP1 DUP2 PUSH2 0x472 SWAP2 SWAP1 PUSH2 0x11DF JUMP JUMPDEST POP PUSH1 0x40 DUP3 ADD MLOAD DUP2 PUSH1 0x2 ADD PUSH1 0x0 PUSH2 0x100 EXP DUP2 SLOAD DUP2 PUSH20 0xFFFFFFFFFFFFFFFFFFFFFFFFFFFFFFFFFFFFFFFF MUL NOT AND SWAP1 DUP4 PUSH20 0xFFFFFFFFFFFFFFFFFFFFFFFFFFFFFFFFFFFFFFFF AND MUL OR SWAP1 SSTORE POP PUSH1 0x60 DUP3 ADD MLOAD DUP2 PUSH1 0x2 ADD PUSH1 0x14 PUSH2 0x100 EXP DUP2 SLOAD DUP2 PUSH1 0xFF MUL NOT AND SWAP1 DUP4 ISZERO ISZERO MUL OR SWAP1 SSTORE POP POP POP POP JUMP JUMPDEST PUSH1 0x60 PUSH1 0x0 DUP1 SLOAD DUP1 PUSH1 0x20 MUL PUSH1 0x20 ADD PUSH1 0x40 MLOAD SWAP1 DUP2 ADD PUSH1 0x40 MSTORE DUP1 SWAP3 SWAP2 SWAP1 DUP2 DUP2 MSTORE PUSH1 0x20 ADD PUSH1 0x0 SWAP1 JUMPDEST DUP3 DUP3 LT ISZERO PUSH2 0x642 JUMPI DUP4 DUP3 SWAP1 PUSH1 0x0 MSTORE PUSH1 0x20 PUSH1 0x0 KECCAK256 SWAP1 PUSH1 0x3 MUL ADD PUSH1 0x40 MLOAD DUP1 PUSH1 0x80 ADD PUSH1 0x40 MSTORE SWAP1 DUP2 PUSH1 0x0 DUP3 ADD SLOAD DUP2 MSTORE PUSH1 0x20 ADD PUSH1 0x1 DUP3 ADD DUP1 SLOAD PUSH2 0x540 SWAP1 PUSH2 0x1002 JUMP JUMPDEST DUP1 PUSH1 0x1F ADD PUSH1 0x20 DUP1 SWAP2 DIV MUL PUSH1 0x20 ADD PUSH1 0x40 MLOAD SWAP1 DUP2 ADD PUSH1 0x40 MSTORE DUP1 SWAP3 SWAP2 SWAP1 DUP2 DUP2 MSTORE PUSH1 0x20 ADD DUP3 DUP1 SLOAD PUSH2 0x56C SWAP1 PUSH2 0x1002 JUMP JUMPDEST DUP1 ISZERO PUSH2 0x5B9 JUMPI DUP1 PUSH1 0x1F LT PUSH2 0x58E JUMPI PUSH2 0x100 DUP1 DUP4 SLOAD DIV MUL DUP4 MSTORE SWAP2 PUSH1 0x20 ADD SWAP2 PUSH2 0x5B9 JUMP JUMPDEST DUP3 ADD SWAP2 SWAP1 PUSH1 0x0 MSTORE PUSH1 0x20 PUSH1 0x0 KECCAK256 SWAP1 JUMPDEST DUP2 SLOAD DUP2 MSTORE SWAP1 PUSH1 0x1 ADD SWAP1 PUSH1 0x20 ADD DUP1 DUP4 GT PUSH2 0x59C JUMPI DUP3 SWAP1 SUB PUSH1 0x1F AND DUP3 ADD SWAP2 JUMPDEST POP POP POP POP POP DUP2 MSTORE PUSH1 0x20 ADD PUSH1 0x2 DUP3 ADD PUSH1 0x0 SWAP1 SLOAD SWAP1 PUSH2 0x100 EXP SWAP1 DIV PUSH20 0xFFFFFFFFFFFFFFFFFFFFFFFFFFFFFFFFFFFFFFFF AND PUSH20 0xFFFFFFFFFFFFFFFFFFFFFFFFFFFFFFFFFFFFFFFF AND PUSH20 0xFFFFFFFFFFFFFFFFFFFFFFFFFFFFFFFFFFFFFFFF AND DUP2 MSTORE PUSH1 0x20 ADD PUSH1 0x2 DUP3 ADD PUSH1 0x14 SWAP1 SLOAD SWAP1 PUSH2 0x100 EXP SWAP1 DIV PUSH1 0xFF AND ISZERO ISZERO ISZERO ISZERO DUP2 MSTORE POP POP DUP2 MSTORE PUSH1 0x20 ADD SWAP1 PUSH1 0x1 ADD SWAP1 PUSH2 0x503 JUMP JUMPDEST POP POP POP POP SWAP1 POP SWAP1 JUMP JUMPDEST DUP2 PUSH1 0x0 DUP1 SLOAD SWAP1 POP DUP2 LT PUSH2 0x693 JUMPI PUSH1 0x40 MLOAD PUSH32 0x8C379A000000000000000000000000000000000000000000000000000000000 DUP2 MSTORE PUSH1 0x4 ADD PUSH2 0x68A SWAP1 PUSH2 0xE60 JUMP JUMPDEST PUSH1 0x40 MLOAD DUP1 SWAP2 SUB SWAP1 REVERT JUMPDEST PUSH1 0x0 DUP1 DUP5 DUP2 SLOAD DUP2 LT PUSH2 0x6A8 JUMPI PUSH2 0x6A7 PUSH2 0xE80 JUMP JUMPDEST JUMPDEST SWAP1 PUSH1 0x0 MSTORE PUSH1 0x20 PUSH1 0x0 KECCAK256 SWAP1 PUSH1 0x3 MUL ADD SWAP1 POP DUP1 PUSH1 0x2 ADD PUSH1 0x0 SWAP1 SLOAD SWAP1 PUSH2 0x100 EXP SWAP1 DIV PUSH20 0xFFFFFFFFFFFFFFFFFFFFFFFFFFFFFFFFFFFFFFFF AND PUSH20 0xFFFFFFFFFFFFFFFFFFFFFFFFFFFFFFFFFFFFFFFF AND CALLER PUSH20 0xFFFFFFFFFFFFFFFFFFFFFFFFFFFFFFFFFFFFFFFF AND EQ PUSH2 0x74A JUMPI PUSH1 0x40 MLOAD PUSH32 0x8C379A000000000000000000000000000000000000000000000000000000000 DUP2 MSTORE PUSH1 0x4 ADD PUSH2 0x741 SWAP1 PUSH2 0x1386 JUMP JUMPDEST PUSH1 0x40 MLOAD DUP1 SWAP2 SUB SWAP1 REVERT JUMPDEST DUP3 DUP2 PUSH1 0x1 ADD SWAP1 DUP2 PUSH2 0x75B SWAP2 SWAP1 PUSH2 0x11DF JUMP JUMPDEST POP POP POP POP POP JUMP JUMPDEST PUSH2 0x76A PUSH2 0x8AB JUMP JUMPDEST PUSH1 0x0 DUP3 DUP2 SLOAD DUP2 LT PUSH2 0x77E JUMPI PUSH2 0x77D PUSH2 0xE80 JUMP JUMPDEST JUMPDEST SWAP1 PUSH1 0x0 MSTORE PUSH1 0x20 PUSH1 0x0 KECCAK256 SWAP1 PUSH1 0x3 MUL ADD PUSH1 0x40 MLOAD DUP1 PUSH1 0x80 ADD PUSH1 0x40 MSTORE SWAP1 DUP2 PUSH1 0x0 DUP3 ADD SLOAD DUP2 MSTORE PUSH1 0x20 ADD PUSH1 0x1 DUP3 ADD DUP1 SLOAD PUSH2 0x7B1 SWAP1 PUSH2 0x1002 JUMP JUMPDEST DUP1 PUSH1 0x1F ADD PUSH1 0x20 DUP1 SWAP2 DIV MUL PUSH1 0x20 ADD PUSH1 0x40 MLOAD SWAP1 DUP2 ADD PUSH1 0x40 MSTORE DUP1 SWAP3 SWAP2 SWAP1 DUP2 DUP2 MSTORE PUSH1 0x20 ADD DUP3 DUP1 SLOAD PUSH2 0x7DD SWAP1 PUSH2 0x1002 JUMP JUMPDEST DUP1 ISZERO PUSH2 0x82A JUMPI DUP1 PUSH1 0x1F LT PUSH2 0x7FF JUMPI PUSH2 0x100 DUP1 DUP4 SLOAD DIV MUL DUP4 MSTORE SWAP2 PUSH1 0x20 ADD SWAP2 PUSH2 0x82A JUMP JUMPDEST DUP3 ADD SWAP2 SWAP1 PUSH1 0x0 MSTORE PUSH1 0x20 PUSH1 0x0 KECCAK256 SWAP1 JUMPDEST DUP2 SLOAD DUP2 MSTORE SWAP1 PUSH1 0x1 ADD SWAP1 PUSH1 0x20 ADD DUP1 DUP4 GT PUSH2 0x80D JUMPI DUP3 SWAP1 SUB PUSH1 0x1F AND DUP3 ADD SWAP2 JUMPDEST POP POP POP POP POP DUP2 MSTORE PUSH1 0x20 ADD PUSH1 0x2 DUP3 ADD PUSH1 0x0 SWAP1 SLOAD SWAP1 PUSH2 0x100 EXP SWAP1 DIV PUSH20 0xFFFFFFFFFFFFFFFFFFFFFFFFFFFFFFFFFFFFFFFF AND PUSH20 0xFFFFFFFFFFFFFFFFFFFFFFFFFFFFFFFFFFFFFFFF AND PUSH20 0xFFFFFFFFFFFFFFFFFFFFFFFFFFFFFFFFFFFFFFFF AND DUP2 MSTORE PUSH1 0x20 ADD PUSH1 0x2 DUP3 ADD PUSH1 0x14 SWAP1 SLOAD SWAP1 PUSH2 0x100 EXP SWAP1 DIV PUSH1 0xFF AND ISZERO ISZERO ISZERO ISZERO DUP2 MSTORE POP POP SWAP1 POP SWAP2 SWAP1 POP JUMP JUMPDEST PUSH1 0x40 MLOAD DUP1 PUSH1 0x80 ADD PUSH1 0x40 MSTORE DUP1 PUSH1 0x0 DUP2 MSTORE PUSH1 0x20 ADD PUSH1 0x60 DUP2 MSTORE PUSH1 0x20 ADD PUSH1 0x0 PUSH20 0xFFFFFFFFFFFFFFFFFFFFFFFFFFFFFFFFFFFFFFFF AND DUP2 MSTORE PUSH1 0x20 ADD PUSH1 0x0 ISZERO ISZERO DUP2 MSTORE POP SWAP1 JUMP JUMPDEST PUSH1 0x0 PUSH1 0x40 MLOAD SWAP1 POP SWAP1 JUMP JUMPDEST PUSH1 0x0 DUP1 REVERT JUMPDEST PUSH1 0x0 DUP1 REVERT JUMPDEST PUSH1 0x0 DUP2 SWAP1 POP SWAP2 SWAP1 POP JUMP JUMPDEST PUSH2 0x912 DUP2 PUSH2 0x8FF JUMP JUMPDEST DUP2 EQ PUSH2 0x91D JUMPI PUSH1 0x0 DUP1 REVERT JUMPDEST POP JUMP JUMPDEST PUSH1 0x0 DUP2 CALLDATALOAD SWAP1 POP PUSH2 0x92F DUP2 PUSH2 0x909 JUMP JUMPDEST SWAP3 SWAP2 POP POP JUMP JUMPDEST PUSH1 0x0 PUSH1 0x20 DUP3 DUP5 SUB SLT ISZERO PUSH2 0x94B JUMPI PUSH2 0x94A PUSH2 0x8F5 JUMP JUMPDEST JUMPDEST PUSH1 0x0 PUSH2 0x959 DUP5 DUP3 DUP6 ADD PUSH2 0x920 JUMP JUMPDEST SWAP2 POP POP SWAP3 SWAP2 POP POP JUMP JUMPDEST PUSH1 0x0 DUP1 REVERT JUMPDEST PUSH1 0x0 DUP1 REVERT JUMPDEST PUSH1 0x0 PUSH1 0x1F NOT PUSH1 0x1F DUP4 ADD AND SWAP1 POP SWAP2 SWAP1 POP JUMP JUMPDEST PUSH32 0x4E487B7100000000000000000000000000000000000000000000000000000000 PUSH1 0x0 MSTORE PUSH1 0x41 PUSH1 0x4 MSTORE PUSH1 0x24 PUSH1 0x0 REVERT JUMPDEST PUSH2 0x9B5 DUP3 PUSH2 0x96C JUMP JUMPDEST DUP2 ADD DUP2 DUP2 LT PUSH8 0xFFFFFFFFFFFFFFFF DUP3 GT OR ISZERO PUSH2 0x9D4 JUMPI PUSH2 0x9D3 PUSH2 0x97D JUMP JUMPDEST JUMPDEST DUP1 PUSH1 0x40 MSTORE POP POP POP JUMP JUMPDEST PUSH1 0x0 PUSH2 0x9E7 PUSH2 0x8EB JUMP JUMPDEST SWAP1 POP PUSH2 0x9F3 DUP3 DUP3 PUSH2 0x9AC JUMP JUMPDEST SWAP2 SWAP1 POP JUMP JUMPDEST PUSH1 0x0 PUSH8 0xFFFFFFFFFFFFFFFF DUP3 GT ISZERO PUSH2 0xA13 JUMPI PUSH2 0xA12 PUSH2 0x97D JUMP JUMPDEST JUMPDEST PUSH2 0xA1C DUP3 PUSH2 0x96C JUMP JUMPDEST SWAP1 POP PUSH1 0x20 DUP2 ADD SWAP1 POP SWAP2 SWAP1 POP JUMP JUMPDEST DUP3 DUP2 DUP4 CALLDATACOPY PUSH1 0x0 DUP4 DUP4 ADD MSTORE POP POP POP JUMP JUMPDEST PUSH1 0x0 PUSH2 0xA4B PUSH2 0xA46 DUP5 PUSH2 0x9F8 JUMP JUMPDEST PUSH2 0x9DD JUMP JUMPDEST SWAP1 POP DUP3 DUP2 MSTORE PUSH1 0x20 DUP2 ADD DUP5 DUP5 DUP5 ADD GT ISZERO PUSH2 0xA67 JUMPI PUSH2 0xA66 PUSH2 0x967 JUMP JUMPDEST JUMPDEST PUSH2 0xA72 DUP5 DUP3 DUP6 PUSH2 0xA29 JUMP JUMPDEST POP SWAP4 SWAP3 POP POP POP JUMP JUMPDEST PUSH1 0x0 DUP3 PUSH1 0x1F DUP4 ADD SLT PUSH2 0xA8F JUMPI PUSH2 0xA8E PUSH2 0x962 JUMP JUMPDEST JUMPDEST DUP2 CALLDATALOAD PUSH2 0xA9F DUP5 DUP3 PUSH1 0x20 DUP7 ADD PUSH2 0xA38 JUMP JUMPDEST SWAP2 POP POP SWAP3 SWAP2 POP POP JUMP JUMPDEST PUSH1 0x0 PUSH1 0x20 DUP3 DUP5 SUB SLT ISZERO PUSH2 0xABE JUMPI PUSH2 0xABD PUSH2 0x8F5 JUMP JUMPDEST JUMPDEST PUSH1 0x0 DUP3 ADD CALLDATALOAD PUSH8 0xFFFFFFFFFFFFFFFF DUP2 GT ISZERO PUSH2 0xADC JUMPI PUSH2 0xADB PUSH2 0x8FA JUMP JUMPDEST JUMPDEST PUSH2 0xAE8 DUP5 DUP3 DUP6 ADD PUSH2 0xA7A JUMP JUMPDEST SWAP2 POP POP SWAP3 SWAP2 POP POP JUMP JUMPDEST PUSH1 0x0 DUP2 MLOAD SWAP1 POP SWAP2 SWAP1 POP JUMP JUMPDEST PUSH1 0x0 DUP3 DUP3 MSTORE PUSH1 0x20 DUP3 ADD SWAP1 POP SWAP3 SWAP2 POP POP JUMP JUMPDEST PUSH1 0x0 DUP2 SWAP1 POP PUSH1 0x20 DUP3 ADD SWAP1 POP SWAP2 SWAP1 POP JUMP JUMPDEST PUSH2 0xB26 DUP2 PUSH2 0x8FF JUMP JUMPDEST DUP3 MSTORE POP POP JUMP JUMPDEST PUSH1 0x0 DUP2 MLOAD SWAP1 POP SWAP2 SWAP1 POP JUMP JUMPDEST PUSH1 0x0 DUP3 DUP3 MSTORE PUSH1 0x20 DUP3 ADD SWAP1 POP SWAP3 SWAP2 POP POP JUMP JUMPDEST PUSH1 0x0 JUMPDEST DUP4 DUP2 LT ISZERO PUSH2 0xB66 JUMPI DUP1 DUP3 ADD MLOAD DUP2 DUP5 ADD MSTORE PUSH1 0x20 DUP2 ADD SWAP1 POP PUSH2 0xB4B JUMP JUMPDEST PUSH1 0x0 DUP5 DUP5 ADD MSTORE POP POP POP POP JUMP JUMPDEST PUSH1 0x0 PUSH2 0xB7D DUP3 PUSH2 0xB2C JUMP JUMPDEST PUSH2 0xB87 DUP2 DUP6 PUSH2 0xB37 JUMP JUMPDEST SWAP4 POP PUSH2 0xB97 DUP2 DUP6 PUSH1 0x20 DUP7 ADD PUSH2 0xB48 JUMP JUMPDEST PUSH2 0xBA0 DUP2 PUSH2 0x96C JUMP JUMPDEST DUP5 ADD SWAP2 POP POP SWAP3 SWAP2 POP POP JUMP JUMPDEST PUSH1 0x0 PUSH20 0xFFFFFFFFFFFFFFFFFFFFFFFFFFFFFFFFFFFFFFFF DUP3 AND SWAP1 POP SWAP2 SWAP1 POP JUMP JUMPDEST PUSH1 0x0 PUSH2 0xBD6 DUP3 PUSH2 0xBAB JUMP JUMPDEST SWAP1 POP SWAP2 SWAP1 POP JUMP JUMPDEST PUSH2 0xBE6 DUP2 PUSH2 0xBCB JUMP JUMPDEST DUP3 MSTORE POP POP JUMP JUMPDEST PUSH1 0x0 DUP2 ISZERO ISZERO SWAP1 POP SWAP2 SWAP1 POP JUMP JUMPDEST PUSH2 0xC01 DUP2 PUSH2 0xBEC JUMP JUMPDEST DUP3 MSTORE POP POP JUMP JUMPDEST PUSH1 0x0 PUSH1 0x80 DUP4 ADD PUSH1 0x0 DUP4 ADD MLOAD PUSH2 0xC1F PUSH1 0x0 DUP7 ADD DUP3 PUSH2 0xB1D JUMP JUMPDEST POP PUSH1 0x20 DUP4 ADD MLOAD DUP5 DUP3 SUB PUSH1 0x20 DUP7 ADD MSTORE PUSH2 0xC37 DUP3 DUP3 PUSH2 0xB72 JUMP JUMPDEST SWAP2 POP POP PUSH1 0x40 DUP4 ADD MLOAD PUSH2 0xC4C PUSH1 0x40 DUP7 ADD DUP3 PUSH2 0xBDD JUMP JUMPDEST POP PUSH1 0x60 DUP4 ADD MLOAD PUSH2 0xC5F PUSH1 0x60 DUP7 ADD DUP3 PUSH2 0xBF8 JUMP JUMPDEST POP DUP1 SWAP2 POP POP SWAP3 SWAP2 POP POP JUMP JUMPDEST PUSH1 0x0 PUSH2 0xC76 DUP4 DUP4 PUSH2 0xC07 JUMP JUMPDEST SWAP1 POP SWAP3 SWAP2 POP POP JUMP JUMPDEST PUSH1 0x0 PUSH1 0x20 DUP3 ADD SWAP1 POP SWAP2 SWAP1 POP JUMP JUMPDEST PUSH1 0x0 PUSH2 0xC96 DUP3 PUSH2 0xAF1 JUMP JUMPDEST PUSH2 0xCA0 DUP2 DUP6 PUSH2 0xAFC JUMP JUMPDEST SWAP4 POP DUP4 PUSH1 0x20 DUP3 MUL DUP6 ADD PUSH2 0xCB2 DUP6 PUSH2 0xB0D JUMP JUMPDEST DUP1 PUSH1 0x0 JUMPDEST DUP6 DUP2 LT ISZERO PUSH2 0xCEE JUMPI DUP5 DUP5 SUB DUP10 MSTORE DUP2 MLOAD PUSH2 0xCCF DUP6 DUP3 PUSH2 0xC6A JUMP JUMPDEST SWAP5 POP PUSH2 0xCDA DUP4 PUSH2 0xC7E JUMP JUMPDEST SWAP3 POP PUSH1 0x20 DUP11 ADD SWAP10 POP POP PUSH1 0x1 DUP2 ADD SWAP1 POP PUSH2 0xCB6 JUMP JUMPDEST POP DUP3 SWAP8 POP DUP8 SWAP6 POP POP POP POP POP POP SWAP3 SWAP2 POP POP JUMP JUMPDEST PUSH1 0x0 PUSH1 0x20 DUP3 ADD SWAP1 POP DUP2 DUP2 SUB PUSH1 0x0 DUP4 ADD MSTORE PUSH2 0xD1A DUP2 DUP5 PUSH2 0xC8B JUMP JUMPDEST SWAP1 POP SWAP3 SWAP2 POP POP JUMP JUMPDEST PUSH1 0x0 DUP1 PUSH1 0x40 DUP4 DUP6 SUB SLT ISZERO PUSH2 0xD39 JUMPI PUSH2 0xD38 PUSH2 0x8F5 JUMP JUMPDEST JUMPDEST PUSH1 0x0 PUSH2 0xD47 DUP6 DUP3 DUP7 ADD PUSH2 0x920 JUMP JUMPDEST SWAP3 POP POP PUSH1 0x20 DUP4 ADD CALLDATALOAD PUSH8 0xFFFFFFFFFFFFFFFF DUP2 GT ISZERO PUSH2 0xD68 JUMPI PUSH2 0xD67 PUSH2 0x8FA JUMP JUMPDEST JUMPDEST PUSH2 0xD74 DUP6 DUP3 DUP7 ADD PUSH2 0xA7A JUMP JUMPDEST SWAP2 POP POP SWAP3 POP SWAP3 SWAP1 POP JUMP JUMPDEST PUSH1 0x0 PUSH1 0x80 DUP4 ADD PUSH1 0x0 DUP4 ADD MLOAD PUSH2 0xD96 PUSH1 0x0 DUP7 ADD DUP3 PUSH2 0xB1D JUMP JUMPDEST POP PUSH1 0x20 DUP4 ADD MLOAD DUP5 DUP3 SUB PUSH1 0x20 DUP7 ADD MSTORE PUSH2 0xDAE DUP3 DUP3 PUSH2 0xB72 JUMP JUMPDEST SWAP2 POP POP PUSH1 0x40 DUP4 ADD MLOAD PUSH2 0xDC3 PUSH1 0x40 DUP7 ADD DUP3 PUSH2 0xBDD JUMP JUMPDEST POP PUSH1 0x60 DUP4 ADD MLOAD PUSH2 0xDD6 PUSH1 0x60 DUP7 ADD DUP3 PUSH2 0xBF8 JUMP JUMPDEST POP DUP1 SWAP2 POP POP SWAP3 SWAP2 POP POP JUMP JUMPDEST PUSH1 0x0 PUSH1 0x20 DUP3 ADD SWAP1 POP DUP2 DUP2 SUB PUSH1 0x0 DUP4 ADD MSTORE PUSH2 0xDFB DUP2 DUP5 PUSH2 0xD7E JUMP JUMPDEST SWAP1 POP SWAP3 SWAP2 POP POP JUMP JUMPDEST PUSH1 0x0 DUP3 DUP3 MSTORE PUSH1 0x20 DUP3 ADD SWAP1 POP SWAP3 SWAP2 POP POP JUMP JUMPDEST PUSH32 0x4F7574206F6620626F756E647300000000000000000000000000000000000000 PUSH1 0x0 DUP3 ADD MSTORE POP JUMP JUMPDEST PUSH1 0x0 PUSH2 0xE4A PUSH1 0xD DUP4 PUSH2 0xE03 JUMP JUMPDEST SWAP2 POP PUSH2 0xE55 DUP3 PUSH2 0xE14 JUMP JUMPDEST PUSH1 0x20 DUP3 ADD SWAP1 POP SWAP2 SWAP1 POP JUMP JUMPDEST PUSH1 0x0 PUSH1 0x20 DUP3 ADD SWAP1 POP DUP2 DUP2 SUB PUSH1 0x0 DUP4 ADD MSTORE PUSH2 0xE79 DUP2 PUSH2 0xE3D JUMP JUMPDEST SWAP1 POP SWAP2 SWAP1 POP JUMP JUMPDEST PUSH32 0x4E487B7100000000000000000000000000000000000000000000000000000000 PUSH1 0x0 MSTORE PUSH1 0x32 PUSH1 0x4 MSTORE PUSH1 0x24 PUSH1 0x0 REVERT JUMPDEST PUSH32 0x4F6E6C79207468652063726561746F72206F662074686520746F646F20697465 PUSH1 0x0 DUP3 ADD MSTORE PUSH32 0x6D2063616E20746F67676C792069742E00000000000000000000000000000000 PUSH1 0x20 DUP3 ADD MSTORE POP JUMP JUMPDEST PUSH1 0x0 PUSH2 0xF0B PUSH1 0x30 DUP4 PUSH2 0xE03 JUMP JUMPDEST SWAP2 POP PUSH2 0xF16 DUP3 PUSH2 0xEAF JUMP JUMPDEST PUSH1 0x40 DUP3 ADD SWAP1 POP SWAP2 SWAP1 POP JUMP JUMPDEST PUSH1 0x0 PUSH1 0x20 DUP3 ADD SWAP1 POP DUP2 DUP2 SUB PUSH1 0x0 DUP4 ADD MSTORE PUSH2 0xF3A DUP2 PUSH2 0xEFE JUMP JUMPDEST SWAP1 POP SWAP2 SWAP1 POP JUMP JUMPDEST PUSH32 0x4F6E6C79207468652063726561746F72206F662074686520746F646F20697465 PUSH1 0x0 DUP3 ADD MSTORE PUSH32 0x6D2063616E2064656C6574652069742E00000000000000000000000000000000 PUSH1 0x20 DUP3 ADD MSTORE POP JUMP JUMPDEST PUSH1 0x0 PUSH2 0xF9D PUSH1 0x30 DUP4 PUSH2 0xE03 JUMP JUMPDEST SWAP2 POP PUSH2 0xFA8 DUP3 PUSH2 0xF41 JUMP JUMPDEST PUSH1 0x40 DUP3 ADD SWAP1 POP SWAP2 SWAP1 POP JUMP JUMPDEST PUSH1 0x0 PUSH1 0x20 DUP3 ADD SWAP1 POP DUP2 DUP2 SUB PUSH1 0x0 DUP4 ADD MSTORE PUSH2 0xFCC DUP2 PUSH2 0xF90 JUMP JUMPDEST SWAP1 POP SWAP2 SWAP1 POP JUMP JUMPDEST PUSH32 0x4E487B7100000000000000000000000000000000000000000000000000000000 PUSH1 0x0 MSTORE PUSH1 0x22 PUSH1 0x4 MSTORE PUSH1 0x24 PUSH1 0x0 REVERT JUMPDEST PUSH1 0x0 PUSH1 0x2 DUP3 DIV SWAP1 POP PUSH1 0x1 DUP3 AND DUP1 PUSH2 0x101A JUMPI PUSH1 0x7F DUP3 AND SWAP2 POP JUMPDEST PUSH1 0x20 DUP3 LT DUP2 SUB PUSH2 0x102D JUMPI PUSH2 0x102C PUSH2 0xFD3 JUMP JUMPDEST JUMPDEST POP SWAP2 SWAP1 POP JUMP JUMPDEST PUSH1 0x0 DUP2 SWAP1 POP DUP2 PUSH1 0x0 MSTORE PUSH1 0x20 PUSH1 0x0 KECCAK256 SWAP1 POP SWAP2 SWAP1 POP JUMP JUMPDEST PUSH1 0x0 PUSH1 0x20 PUSH1 0x1F DUP4 ADD DIV SWAP1 POP SWAP2 SWAP1 POP JUMP JUMPDEST PUSH1 0x0 DUP3 DUP3 SHL SWAP1 POP SWAP3 SWAP2 POP POP JUMP JUMPDEST PUSH1 0x0 PUSH1 0x8 DUP4 MUL PUSH2 0x1095 PUSH32 0xFFFFFFFFFFFFFFFFFFFFFFFFFFFFFFFFFFFFFFFFFFFFFFFFFFFFFFFFFFFFFFFF DUP3 PUSH2 0x1058 JUMP JUMPDEST PUSH2 0x109F DUP7 DUP4 PUSH2 0x1058 JUMP JUMPDEST SWAP6 POP DUP1 NOT DUP5 AND SWAP4 POP DUP1 DUP7 AND DUP5 OR SWAP3 POP POP POP SWAP4 SWAP3 POP POP POP JUMP JUMPDEST PUSH1 0x0 DUP2 SWAP1 POP SWAP2 SWAP1 POP JUMP JUMPDEST PUSH1 0x0 PUSH2 0x10DC PUSH2 0x10D7 PUSH2 0x10D2 DUP5 PUSH2 0x8FF JUMP JUMPDEST PUSH2 0x10B7 JUMP JUMPDEST PUSH2 0x8FF JUMP JUMPDEST SWAP1 POP SWAP2 SWAP1 POP JUMP JUMPDEST PUSH1 0x0 DUP2 SWAP1 POP SWAP2 SWAP1 POP JUMP JUMPDEST PUSH2 0x10F6 DUP4 PUSH2 0x10C1 JUMP JUMPDEST PUSH2 0x110A PUSH2 0x1102 DUP3 PUSH2 0x10E3 JUMP JUMPDEST DUP5 DUP5 SLOAD PUSH2 0x1065 JUMP JUMPDEST DUP3 SSTORE POP POP POP POP JUMP JUMPDEST PUSH1 0x0 SWAP1 JUMP JUMPDEST PUSH2 0x111F PUSH2 0x1112 JUMP JUMPDEST PUSH2 0x112A DUP2 DUP5 DUP5 PUSH2 0x10ED JUMP JUMPDEST POP POP POP JUMP JUMPDEST JUMPDEST DUP2 DUP2 LT ISZERO PUSH2 0x114E JUMPI PUSH2 0x1143 PUSH1 0x0 DUP3 PUSH2 0x1117 JUMP JUMPDEST PUSH1 0x1 DUP2 ADD SWAP1 POP PUSH2 0x1130 JUMP JUMPDEST POP POP JUMP JUMPDEST PUSH1 0x1F DUP3 GT ISZERO PUSH2 0x1193 JUMPI PUSH2 0x1164 DUP2 PUSH2 0x1033 JUMP JUMPDEST PUSH2 0x116D DUP5 PUSH2 0x1048 JUMP JUMPDEST DUP2 ADD PUSH1 0x20 DUP6 LT ISZERO PUSH2 0x117C JUMPI DUP2 SWAP1 POP JUMPDEST PUSH2 0x1190 PUSH2 0x1188 DUP6 PUSH2 0x1048 JUMP JUMPDEST DUP4 ADD DUP3 PUSH2 0x112F JUMP JUMPDEST POP POP JUMPDEST POP POP POP JUMP JUMPDEST PUSH1 0x0 DUP3 DUP3 SHR SWAP1 POP SWAP3 SWAP2 POP POP JUMP JUMPDEST PUSH1 0x0 PUSH2 0x11B6 PUSH1 0x0 NOT DUP5 PUSH1 0x8 MUL PUSH2 0x1198 JUMP JUMPDEST NOT DUP1 DUP4 AND SWAP2 POP POP SWAP3 SWAP2 POP POP JUMP JUMPDEST PUSH1 0x0 PUSH2 0x11CF DUP4 DUP4 PUSH2 0x11A5 JUMP JUMPDEST SWAP2 POP DUP3 PUSH1 0x2 MUL DUP3 OR SWAP1 POP SWAP3 SWAP2 POP POP JUMP JUMPDEST PUSH2 0x11E8 DUP3 PUSH2 0xB2C JUMP JUMPDEST PUSH8 0xFFFFFFFFFFFFFFFF DUP2 GT ISZERO PUSH2 0x1201 JUMPI PUSH2 0x1200 PUSH2 0x97D JUMP JUMPDEST JUMPDEST PUSH2 0x120B DUP3 SLOAD PUSH2 0x1002 JUMP JUMPDEST PUSH2 0x1216 DUP3 DUP3 DUP6 PUSH2 0x1152 JUMP JUMPDEST PUSH1 0x0 PUSH1 0x20 SWAP1 POP PUSH1 0x1F DUP4 GT PUSH1 0x1 DUP2 EQ PUSH2 0x1249 JUMPI PUSH1 0x0 DUP5 ISZERO PUSH2 0x1237 JUMPI DUP3 DUP8 ADD MLOAD SWAP1 POP JUMPDEST PUSH2 0x1241 DUP6 DUP3 PUSH2 0x11C3 JUMP JUMPDEST DUP7 SSTORE POP PUSH2 0x12A9 JUMP JUMPDEST PUSH1 0x1F NOT DUP5 AND PUSH2 0x1257 DUP7 PUSH2 0x1033 JUMP JUMPDEST PUSH1 0x0 JUMPDEST DUP3 DUP2 LT ISZERO PUSH2 0x127F JUMPI DUP5 DUP10 ADD MLOAD DUP3 SSTORE PUSH1 0x1 DUP3 ADD SWAP2 POP PUSH1 0x20 DUP6 ADD SWAP5 POP PUSH1 0x20 DUP2 ADD SWAP1 POP PUSH2 0x125A JUMP JUMPDEST DUP7 DUP4 LT ISZERO PUSH2 0x129C JUMPI DUP5 DUP10 ADD MLOAD PUSH2 0x1298 PUSH1 0x1F DUP10 AND DUP3 PUSH2 0x11A5 JUMP JUMPDEST DUP4 SSTORE POP JUMPDEST PUSH1 0x1 PUSH1 0x2 DUP9 MUL ADD DUP9 SSTORE POP POP POP JUMPDEST POP POP POP POP POP POP JUMP JUMPDEST PUSH32 0x4E487B7100000000000000000000000000000000000000000000000000000000 PUSH1 0x0 MSTORE PUSH1 0x11 PUSH1 0x4 MSTORE PUSH1 0x24 PUSH1 0x0 REVERT JUMPDEST PUSH1 0x0 PUSH2 0x12EB DUP3 PUSH2 0x8FF JUMP JUMPDEST SWAP2 POP PUSH2 0x12F6 DUP4 PUSH2 0x8FF JUMP JUMPDEST SWAP3 POP DUP3 DUP3 ADD SWAP1 POP DUP1 DUP3 GT ISZERO PUSH2 0x130E JUMPI PUSH2 0x130D PUSH2 0x12B1 JUMP JUMPDEST JUMPDEST SWAP3 SWAP2 POP POP JUMP JUMPDEST PUSH32 0x4F6E6C79207468652063726561746F72206F662074686520746F646F20697465 PUSH1 0x0 DUP3 ADD MSTORE PUSH32 0x6D2063616E206D6F646966792069742E00000000000000000000000000000000 PUSH1 0x20 DUP3 ADD MSTORE POP JUMP JUMPDEST PUSH1 0x0 PUSH2 0x1370 PUSH1 0x30 DUP4 PUSH2 0xE03 JUMP JUMPDEST SWAP2 POP PUSH2 0x137B DUP3 PUSH2 0x1314 JUMP JUMPDEST PUSH1 0x40 DUP3 ADD SWAP1 POP SWAP2 SWAP1 POP JUMP JUMPDEST PUSH1 0x0 PUSH1 0x20 DUP3 ADD SWAP1 POP DUP2 DUP2 SUB PUSH1 0x0 DUP4 ADD MSTORE PUSH2 0x139F DUP2 PUSH2 0x1363 JUMP JUMPDEST SWAP1 POP SWAP2 SWAP1 POP JUMP INVALID LOG2 PUSH5 0x6970667358 0x22 SLT KECCAK256 PUSH8 0x8882A2E7E448F4CB 0xDD PUSH20 0xF9FCDC71F52641D3A2DD6D8AA9573BC4ABA47EC CALL PUSH5 0x736F6C6343 STOP ADDMOD GT STOP CALLER "},"methodIdentifiers":{"addTodoItem(string)":"79f2d5e3","deleteTodo(uint256)":"6e3c6738","getAllTodos()":"ce2bd5d5","getTodo(uint256)":"dd68afb6","toggleTask(uint256)":"613137a4","updateTodo(uint256,string)":"d534ee88"}}}}}