{
  "_format": "hh-sol-artifact-1",
  "contractName": "TodoList",
  "sourceName": "contracts/TodoList.sol",
  "abi": [
    {
      "inputs": [
        {
          "internalType": "string",
          "name": "text_",
          "type": "string"
        }
      ],
      "name": "addTodoItem",
      "outputs": [],
      "stateMutability": "nonpayable",
      "type": "function"
    },
    {
      "inputs": [
        {
          "internalType": "uint256",
          "name": "id_",
          "type": "uint256"
        }
      ],
      "name": "deleteTodo",
      "outputs": [],
      "stateMutability": "nonpayable",
      "type": "function"
    },
    {
      "inputs": [],
      "name": "getAllTodos",
      "outputs": [
        {
          "components": [
            {
              "internalType": "uint256",
              "name": "id",
              "type": "uint256"
            },
            {
              "internalType": "string",
              "name": "text",
              "type": "string"
            },
            {
              "internalType": "address",
              "name": "creator",
              "type": "address"
            },
            {
              "internalType": "bool",
              "name": "isCompleted",
              "type": "bool"
            }
          ],
          "internalType": "struct TodoList.TodoItem[]",
          "name": "",
          "type": "tuple[]"
        }
      ],
      "stateMutability": "view",
      "type": "function"
    },
    {
      "inputs": [
        {
          "internalType": "uint256",
          "name": "id_",
          "type": "uint256"
        }
      ],
      "name": "getTodo",
      "outputs": [
        {
          "components": [
            {
              "internalType": "uint256",
              "name": "id",
              "type": "uint256"
            },
            {
              "internalType": "string",
              "name": "text",
              "type": "string"
            },
            {
              "internalType": "address",
              "name": "creator",
              "type": "address"
            },
            {
              "internalType": "bool",
              "name": "isCompleted",
              "type": "bool"
            }
          ],
          "internalType": "struct TodoList.TodoItem",
          "name": "",
          "type": "tuple"
        }
      ],
      "stateMutability": "view",
      "type": "function"
    },
    {
      "inputs": [
        {
          "internalType": "uint256",
          "name": "id_",
          "type": "uint256"
        }
      ],
      "name": "toggleTask",
      "outputs": [],
      "stateMutability": "nonpayable",
      "type": "function"
    },
    {
      "inputs": [
        {
          "internalType": "uint256",
          "name": "id_",
          "type": "uint256"
        },
        {
          "internalType": "string",
          "name": "text_",
          "type": "string"
        }
      ],
      "name": "updateTodo",
      "outputs": [],
      "stateMutability": "nonpayable",
      "type": "function"
    }
  ],
  "bytecode": "0x608060405234801561001057600080fd5b5061136d806100206000396000f3fe608060405234801561001057600080fd5b50600436106100625760003560e01c8063613137a4146100675780636e3c67381461008357806379f2d5e31461009f578063ce2bd5d5146100bb578063d534ee88146100d9578063dd68afb6146100f5575b600080fd5b610081600480360381019061007c9190610929565b610125565b005b61009d60048036038101906100989190610929565b610257565b005b6100b960048036038101906100b49190610a9c565b6103dd565b005b6100c36104d3565b6040516100d09190610cf4565b60405180910390f35b6100f360048036038101906100ee9190610d16565b61063f565b005b61010f600480360381019061010a9190610929565b610756565b60405161011c9190610dd5565b60405180910390f35b80600080549050811061016d576040517f08c379a000000000000000000000000000000000000000000000000000000000815260040161016490610e54565b60405180910390fd5b600080838154811061018257610181610e74565b5b906000526020600020906003020190508060020160009054906101000a900473ffffffffffffffffffffffffffffffffffffffff1673ffffffffffffffffffffffffffffffffffffffff163373ffffffffffffffffffffffffffffffffffffffff1614610224576040517f08c379a000000000000000000000000000000000000000000000000000000000815260040161021b90610f15565b60405180910390fd5b8060020160149054906101000a900460ff16158160020160146101000a81548160ff021916908315150217905550505050565b80600080549050811061029f576040517f08c379a000000000000000000000000000000000000000000000000000000000815260040161029690610e54565b60405180910390fd5b60008083815481106102b4576102b3610e74565b5b906000526020600020906003020190508060020160009054906101000a900473ffffffffffffffffffffffffffffffffffffffff1673ffffffffffffffffffffffffffffffffffffffff163373ffffffffffffffffffffffffffffffffffffffff1614610356576040517f08c379a000000000000000000000000000000000000000000000000000000000815260040161034d90610fa7565b60405180910390fd5b60008160020160006101000a81548173ffffffffffffffffffffffffffffffffffffffff021916908373ffffffffffffffffffffffffffffffffffffffff16021790555060008160020160146101000a81548160ff021916908315150217905550604051806020016040528060008152508160010190816103d791906111d3565b50505050565b6000604051806080016040528060008054905081526020018381526020013373ffffffffffffffffffffffffffffffffffffffff16815260200160001515815250908060018154018082558091505060019003906000526020600020906003020160009091909190915060008201518160000155602082015181600101908161046691906111d3565b5060408201518160020160006101000a81548173ffffffffffffffffffffffffffffffffffffffff021916908373ffffffffffffffffffffffffffffffffffffffff16021790555060608201518160020160146101000a81548160ff021916908315150217905550505050565b60606000805480602002602001604051908101604052809291908181526020016000905b8282101561063657838290600052602060002090600302016040518060800160405290816000820154815260200160018201805461053490610ff6565b80601f016020809104026020016040519081016040528092919081815260200182805461056090610ff6565b80156105ad5780601f10610582576101008083540402835291602001916105ad565b820191906000526020600020905b81548152906001019060200180831161059057829003601f168201915b505050505081526020016002820160009054906101000a900473ffffffffffffffffffffffffffffffffffffffff1673ffffffffffffffffffffffffffffffffffffffff1673ffffffffffffffffffffffffffffffffffffffff1681526020016002820160149054906101000a900460ff161515151581525050815260200190600101906104f7565b50505050905090565b816000805490508110610687576040517f08c379a000000000000000000000000000000000000000000000000000000000815260040161067e90610e54565b60405180910390fd5b600080848154811061069c5761069b610e74565b5b906000526020600020906003020190508060020160009054906101000a900473ffffffffffffffffffffffffffffffffffffffff1673ffffffffffffffffffffffffffffffffffffffff163373ffffffffffffffffffffffffffffffffffffffff161461073e576040517f08c379a000000000000000000000000000000000000000000000000000000000815260040161073590611317565b60405180910390fd5b8281600101908161074f91906111d3565b5050505050565b61075e61089f565b6000828154811061077257610771610e74565b5b9060005260206000209060030201604051806080016040529081600082015481526020016001820180546107a590610ff6565b80601f01602080910402602001604051908101604052809291908181526020018280546107d190610ff6565b801561081e5780601f106107f35761010080835404028352916020019161081e565b820191906000526020600020905b81548152906001019060200180831161080157829003601f168201915b505050505081526020016002820160009054906101000a900473ffffffffffffffffffffffffffffffffffffffff1673ffffffffffffffffffffffffffffffffffffffff1673ffffffffffffffffffffffffffffffffffffffff1681526020016002820160149054906101000a900460ff1615151515815250509050919050565b60405180608001604052806000815260200160608152602001600073ffffffffffffffffffffffffffffffffffffffff1681526020016000151581525090565b6000604051905090565b600080fd5b600080fd5b6000819050919050565b610906816108f3565b811461091157600080fd5b50565b600081359050610923816108fd565b92915050565b60006020828403121561093f5761093e6108e9565b5b600061094d84828501610914565b91505092915050565b600080fd5b600080fd5b6000601f19601f8301169050919050565b7f4e487b7100000000000000000000000000000000000000000000000000000000600052604160045260246000fd5b6109a982610960565b810181811067ffffffffffffffff821117156109c8576109c7610971565b5b80604052505050565b60006109db6108df565b90506109e782826109a0565b919050565b600067ffffffffffffffff821115610a0757610a06610971565b5b610a1082610960565b9050602081019050919050565b82818337600083830152505050565b6000610a3f610a3a846109ec565b6109d1565b905082815260208101848484011115610a5b57610a5a61095b565b5b610a66848285610a1d565b509392505050565b600082601f830112610a8357610a82610956565b5b8135610a93848260208601610a2c565b91505092915050565b600060208284031215610ab257610ab16108e9565b5b600082013567ffffffffffffffff811115610ad057610acf6108ee565b5b610adc84828501610a6e565b91505092915050565b600081519050919050565b600082825260208201905092915050565b6000819050602082019050919050565b610b1a816108f3565b82525050565b600081519050919050565b600082825260208201905092915050565b60005b83811015610b5a578082015181840152602081019050610b3f565b60008484015250505050565b6000610b7182610b20565b610b7b8185610b2b565b9350610b8b818560208601610b3c565b610b9481610960565b840191505092915050565b600073ffffffffffffffffffffffffffffffffffffffff82169050919050565b6000610bca82610b9f565b9050919050565b610bda81610bbf565b82525050565b60008115159050919050565b610bf581610be0565b82525050565b6000608083016000830151610c136000860182610b11565b5060208301518482036020860152610c2b8282610b66565b9150506040830151610c406040860182610bd1565b506060830151610c536060860182610bec565b508091505092915050565b6000610c6a8383610bfb565b905092915050565b6000602082019050919050565b6000610c8a82610ae5565b610c948185610af0565b935083602082028501610ca685610b01565b8060005b85811015610ce25784840389528151610cc38582610c5e565b9450610cce83610c72565b925060208a01995050600181019050610caa565b50829750879550505050505092915050565b60006020820190508181036000830152610d0e8184610c7f565b905092915050565b60008060408385031215610d2d57610d2c6108e9565b5b6000610d3b85828601610914565b925050602083013567ffffffffffffffff811115610d5c57610d5b6108ee565b5b610d6885828601610a6e565b9150509250929050565b6000608083016000830151610d8a6000860182610b11565b5060208301518482036020860152610da28282610b66565b9150506040830151610db76040860182610bd1565b506060830151610dca6060860182610bec565b508091505092915050565b60006020820190508181036000830152610def8184610d72565b905092915050565b600082825260208201905092915050565b7f4f7574206f6620626f756e647300000000000000000000000000000000000000600082015250565b6000610e3e600d83610df7565b9150610e4982610e08565b602082019050919050565b60006020820190508181036000830152610e6d81610e31565b9050919050565b7f4e487b7100000000000000000000000000000000000000000000000000000000600052603260045260246000fd5b7f4f6e6c79207468652063726561746f72206f662074686520746f646f2069746560008201527f6d2063616e20746f67676c792069742e00000000000000000000000000000000602082015250565b6000610eff603083610df7565b9150610f0a82610ea3565b604082019050919050565b60006020820190508181036000830152610f2e81610ef2565b9050919050565b7f4f6e6c79207468652063726561746f72206f662074686520746f646f2069746560008201527f6d2063616e2064656c6574652069742e00000000000000000000000000000000602082015250565b6000610f91603083610df7565b9150610f9c82610f35565b604082019050919050565b60006020820190508181036000830152610fc081610f84565b9050919050565b7f4e487b7100000000000000000000000000000000000000000000000000000000600052602260045260246000fd5b6000600282049050600182168061100e57607f821691505b60208210810361102157611020610fc7565b5b50919050565b60008190508160005260206000209050919050565b60006020601f8301049050919050565b600082821b905092915050565b6000600883026110897fffffffffffffffffffffffffffffffffffffffffffffffffffffffffffffffff8261104c565b611093868361104c565b95508019841693508086168417925050509392505050565b6000819050919050565b60006110d06110cb6110c6846108f3565b6110ab565b6108f3565b9050919050565b6000819050919050565b6110ea836110b5565b6110fe6110f6826110d7565b848454611059565b825550505050565b600090565b611113611106565b61111e8184846110e1565b505050565b5b818110156111425761113760008261110b565b600181019050611124565b5050565b601f8211156111875761115881611027565b6111618461103c565b81016020851015611170578190505b61118461117c8561103c565b830182611123565b50505b505050565b600082821c905092915050565b60006111aa6000198460080261118c565b1980831691505092915050565b60006111c38383611199565b9150826002028217905092915050565b6111dc82610b20565b67ffffffffffffffff8111156111f5576111f4610971565b5b6111ff8254610ff6565b61120a828285611146565b600060209050601f83116001811461123d576000841561122b578287015190505b61123585826111b7565b86555061129d565b601f19841661124b86611027565b60005b828110156112735784890151825560018201915060208501945060208101905061124e565b86831015611290578489015161128c601f891682611199565b8355505b6001600288020188555050505b505050505050565b7f4f6e6c79207468652063726561746f72206f662074686520746f646f2069746560008201527f6d2063616e206d6f646966792069742e00000000000000000000000000000000602082015250565b6000611301603083610df7565b915061130c826112a5565b604082019050919050565b60006020820190508181036000830152611330816112f4565b905091905056fea264697066735822122009998ca550eed684b4d76717346f327ab40c3b31a0056709154238f346b0b73464736f6c63430008110033",
  "linkReferences": {},
  "deployedLinkReferences": {}
}