{
  "_format": "hh-sol-artifact-1",
  "contractName": "TodoList",
  "sourceName": "contracts/TodoList.sol",
  "abi": [
    {
      "inputs": [
        {
          "internalType": "string",
          "name": "text_",
          "type": "string"
        }
      ],
      "name": "addTodoItem",
      "outputs": [],
      "stateMutability": "nonpayable",
      "type": "function"
    },
    {
      "inputs": [
        {
          "internalType": "uint256",
          "name": "id_",
          "type": "uint256"
        }
      ],
      "name": "deleteTodo",
      "outputs": [],
      "stateMutability": "nonpayable",
      "type": "function"
    },
    {
      "inputs": [],
      "name": "getAllTodos",
      "outputs": [
        {
          "components": [
            {
              "internalType": "uint256",
              "name": "id",
              "type": "uint256"
            },
            {
              "internalType": "string",
              "name": "text",
              "type": "string"
            },
            {
              "internalType": "address",
              "name": "creator",
              "type": "address"
            },
            {
              "internalType": "bool",
              "name": "isCompleted",
              "type": "bool"
            }
          ],
          "internalType": "struct TodoList.TodoItem[]",
          "name": "",
          "type": "tuple[]"
        }
      ],
      "stateMutability": "view",
      "type": "function"
    },
    {
      "inputs": [
        {
          "internalType": "uint256",
          "name": "id_",
          "type": "uint256"
        }
      ],
      "name": "getTodo",
      "outputs": [
        {
          "components": [
            {
              "internalType": "uint256",
              "name": "id",
              "type": "uint256"
            },
            {
              "internalType": "string",
              "name": "text",
              "type": "string"
            },
            {
              "internalType": "address",
              "name": "creator",
              "type": "address"
            },
            {
              "internalType": "bool",
              "name": "isCompleted",
              "type": "bool"
            }
          ],
          "internalType": "struct TodoList.TodoItem",
          "name": "",
          "type": "tuple"
        }
      ],
      "stateMutability": "view",
      "type": "function"
    },
    {
      "inputs": [
        {
          "internalType": "uint256",
          "name": "id_",
          "type": "uint256"
        }
      ],
      "name": "toggleTask",
      "outputs": [],
      "stateMutability": "nonpayable",
      "type": "function"
    },
    {
      "inputs": [
        {
          "internalType": "uint256",
          "name": "id_",
          "type": "uint256"
        },
        {
          "internalType": "string",
          "name": "text_",
          "type": "string"
        }
      ],
      "name": "updateTodo",
      "outputs": [],
      "stateMutability": "nonpayable",
      "type": "function"
    }
  ],
  "bytecode": "0x608060405234801561001057600080fd5b506113dc806100206000396000f3fe608060405234801561001057600080fd5b50600436106100625760003560e01c8063613137a4146100675780636e3c67381461008357806379f2d5e31461009f578063ce2bd5d5146100bb578063d534ee88146100d9578063dd68afb6146100f5575b600080fd5b610081600480360381019061007c9190610935565b610125565b005b61009d60048036038101906100989190610935565b610257565b005b6100b960048036038101906100b49190610aa8565b6103dd565b005b6100c36104df565b6040516100d09190610d00565b60405180910390f35b6100f360048036038101906100ee9190610d22565b61064b565b005b61010f600480360381019061010a9190610935565b610762565b60405161011c9190610de1565b60405180910390f35b80600080549050811061016d576040517f08c379a000000000000000000000000000000000000000000000000000000000815260040161016490610e60565b60405180910390fd5b600080838154811061018257610181610e80565b5b906000526020600020906003020190508060020160009054906101000a900473ffffffffffffffffffffffffffffffffffffffff1673ffffffffffffffffffffffffffffffffffffffff163373ffffffffffffffffffffffffffffffffffffffff1614610224576040517f08c379a000000000000000000000000000000000000000000000000000000000815260040161021b90610f21565b60405180910390fd5b8060020160149054906101000a900460ff16158160020160146101000a81548160ff021916908315150217905550505050565b80600080549050811061029f576040517f08c379a000000000000000000000000000000000000000000000000000000000815260040161029690610e60565b60405180910390fd5b60008083815481106102b4576102b3610e80565b5b906000526020600020906003020190508060020160009054906101000a900473ffffffffffffffffffffffffffffffffffffffff1673ffffffffffffffffffffffffffffffffffffffff163373ffffffffffffffffffffffffffffffffffffffff1614610356576040517f08c379a000000000000000000000000000000000000000000000000000000000815260040161034d90610fb3565b60405180910390fd5b60008160020160006101000a81548173ffffffffffffffffffffffffffffffffffffffff021916908373ffffffffffffffffffffffffffffffffffffffff16021790555060008160020160146101000a81548160ff021916908315150217905550604051806020016040528060008152508160010190816103d791906111df565b50505050565b6000604051806080016040528060016000805490506103fc91906112e0565b81526020018381526020013373ffffffffffffffffffffffffffffffffffffffff16815260200160001515815250908060018154018082558091505060019003906000526020600020906003020160009091909190915060008201518160000155602082015181600101908161047291906111df565b5060408201518160020160006101000a81548173ffffffffffffffffffffffffffffffffffffffff021916908373ffffffffffffffffffffffffffffffffffffffff16021790555060608201518160020160146101000a81548160ff021916908315150217905550505050565b60606000805480602002602001604051908101604052809291908181526020016000905b8282101561064257838290600052602060002090600302016040518060800160405290816000820154815260200160018201805461054090611002565b80601f016020809104026020016040519081016040528092919081815260200182805461056c90611002565b80156105b95780601f1061058e576101008083540402835291602001916105b9565b820191906000526020600020905b81548152906001019060200180831161059c57829003601f168201915b505050505081526020016002820160009054906101000a900473ffffffffffffffffffffffffffffffffffffffff1673ffffffffffffffffffffffffffffffffffffffff1673ffffffffffffffffffffffffffffffffffffffff1681526020016002820160149054906101000a900460ff16151515158152505081526020019060010190610503565b50505050905090565b816000805490508110610693576040517f08c379a000000000000000000000000000000000000000000000000000000000815260040161068a90610e60565b60405180910390fd5b60008084815481106106a8576106a7610e80565b5b906000526020600020906003020190508060020160009054906101000a900473ffffffffffffffffffffffffffffffffffffffff1673ffffffffffffffffffffffffffffffffffffffff163373ffffffffffffffffffffffffffffffffffffffff161461074a576040517f08c379a000000000000000000000000000000000000000000000000000000000815260040161074190611386565b60405180910390fd5b8281600101908161075b91906111df565b5050505050565b61076a6108ab565b6000828154811061077e5761077d610e80565b5b9060005260206000209060030201604051806080016040529081600082015481526020016001820180546107b190611002565b80601f01602080910402602001604051908101604052809291908181526020018280546107dd90611002565b801561082a5780601f106107ff5761010080835404028352916020019161082a565b820191906000526020600020905b81548152906001019060200180831161080d57829003601f168201915b505050505081526020016002820160009054906101000a900473ffffffffffffffffffffffffffffffffffffffff1673ffffffffffffffffffffffffffffffffffffffff1673ffffffffffffffffffffffffffffffffffffffff1681526020016002820160149054906101000a900460ff1615151515815250509050919050565b60405180608001604052806000815260200160608152602001600073ffffffffffffffffffffffffffffffffffffffff1681526020016000151581525090565b6000604051905090565b600080fd5b600080fd5b6000819050919050565b610912816108ff565b811461091d57600080fd5b50565b60008135905061092f81610909565b92915050565b60006020828403121561094b5761094a6108f5565b5b600061095984828501610920565b91505092915050565b600080fd5b600080fd5b6000601f19601f8301169050919050565b7f4e487b7100000000000000000000000000000000000000000000000000000000600052604160045260246000fd5b6109b58261096c565b810181811067ffffffffffffffff821117156109d4576109d361097d565b5b80604052505050565b60006109e76108eb565b90506109f382826109ac565b919050565b600067ffffffffffffffff821115610a1357610a1261097d565b5b610a1c8261096c565b9050602081019050919050565b82818337600083830152505050565b6000610a4b610a46846109f8565b6109dd565b905082815260208101848484011115610a6757610a66610967565b5b610a72848285610a29565b509392505050565b600082601f830112610a8f57610a8e610962565b5b8135610a9f848260208601610a38565b91505092915050565b600060208284031215610abe57610abd6108f5565b5b600082013567ffffffffffffffff811115610adc57610adb6108fa565b5b610ae884828501610a7a565b91505092915050565b600081519050919050565b600082825260208201905092915050565b6000819050602082019050919050565b610b26816108ff565b82525050565b600081519050919050565b600082825260208201905092915050565b60005b83811015610b66578082015181840152602081019050610b4b565b60008484015250505050565b6000610b7d82610b2c565b610b878185610b37565b9350610b97818560208601610b48565b610ba08161096c565b840191505092915050565b600073ffffffffffffffffffffffffffffffffffffffff82169050919050565b6000610bd682610bab565b9050919050565b610be681610bcb565b82525050565b60008115159050919050565b610c0181610bec565b82525050565b6000608083016000830151610c1f6000860182610b1d565b5060208301518482036020860152610c378282610b72565b9150506040830151610c4c6040860182610bdd565b506060830151610c5f6060860182610bf8565b508091505092915050565b6000610c768383610c07565b905092915050565b6000602082019050919050565b6000610c9682610af1565b610ca08185610afc565b935083602082028501610cb285610b0d565b8060005b85811015610cee5784840389528151610ccf8582610c6a565b9450610cda83610c7e565b925060208a01995050600181019050610cb6565b50829750879550505050505092915050565b60006020820190508181036000830152610d1a8184610c8b565b905092915050565b60008060408385031215610d3957610d386108f5565b5b6000610d4785828601610920565b925050602083013567ffffffffffffffff811115610d6857610d676108fa565b5b610d7485828601610a7a565b9150509250929050565b6000608083016000830151610d966000860182610b1d565b5060208301518482036020860152610dae8282610b72565b9150506040830151610dc36040860182610bdd565b506060830151610dd66060860182610bf8565b508091505092915050565b60006020820190508181036000830152610dfb8184610d7e565b905092915050565b600082825260208201905092915050565b7f4f7574206f6620626f756e647300000000000000000000000000000000000000600082015250565b6000610e4a600d83610e03565b9150610e5582610e14565b602082019050919050565b60006020820190508181036000830152610e7981610e3d565b9050919050565b7f4e487b7100000000000000000000000000000000000000000000000000000000600052603260045260246000fd5b7f4f6e6c79207468652063726561746f72206f662074686520746f646f2069746560008201527f6d2063616e20746f67676c792069742e00000000000000000000000000000000602082015250565b6000610f0b603083610e03565b9150610f1682610eaf565b604082019050919050565b60006020820190508181036000830152610f3a81610efe565b9050919050565b7f4f6e6c79207468652063726561746f72206f662074686520746f646f2069746560008201527f6d2063616e2064656c6574652069742e00000000000000000000000000000000602082015250565b6000610f9d603083610e03565b9150610fa882610f41565b604082019050919050565b60006020820190508181036000830152610fcc81610f90565b9050919050565b7f4e487b7100000000000000000000000000000000000000000000000000000000600052602260045260246000fd5b6000600282049050600182168061101a57607f821691505b60208210810361102d5761102c610fd3565b5b50919050565b60008190508160005260206000209050919050565b60006020601f8301049050919050565b600082821b905092915050565b6000600883026110957fffffffffffffffffffffffffffffffffffffffffffffffffffffffffffffffff82611058565b61109f8683611058565b95508019841693508086168417925050509392505050565b6000819050919050565b60006110dc6110d76110d2846108ff565b6110b7565b6108ff565b9050919050565b6000819050919050565b6110f6836110c1565b61110a611102826110e3565b848454611065565b825550505050565b600090565b61111f611112565b61112a8184846110ed565b505050565b5b8181101561114e57611143600082611117565b600181019050611130565b5050565b601f8211156111935761116481611033565b61116d84611048565b8101602085101561117c578190505b61119061118885611048565b83018261112f565b50505b505050565b600082821c905092915050565b60006111b660001984600802611198565b1980831691505092915050565b60006111cf83836111a5565b9150826002028217905092915050565b6111e882610b2c565b67ffffffffffffffff8111156112015761120061097d565b5b61120b8254611002565b611216828285611152565b600060209050601f8311600181146112495760008415611237578287015190505b61124185826111c3565b8655506112a9565b601f19841661125786611033565b60005b8281101561127f5784890151825560018201915060208501945060208101905061125a565b8683101561129c5784890151611298601f8916826111a5565b8355505b6001600288020188555050505b505050505050565b7f4e487b7100000000000000000000000000000000000000000000000000000000600052601160045260246000fd5b60006112eb826108ff565b91506112f6836108ff565b925082820190508082111561130e5761130d6112b1565b5b92915050565b7f4f6e6c79207468652063726561746f72206f662074686520746f646f2069746560008201527f6d2063616e206d6f646966792069742e00000000000000000000000000000000602082015250565b6000611370603083610e03565b915061137b82611314565b604082019050919050565b6000602082019050818103600083015261139f81611363565b905091905056fea2646970667358221220678882a2e7e448f4cbdd730f9fcdc71f52641d3a2dd6d8aa9573bc4aba47ecf164736f6c63430008110033",
  "linkReferences": {},
  "deployedLinkReferences": {}
}